:020000041000EA
:10000000002008205D01001013010010E1DE002037
:100010001101001011010010110100101101001058
:100020001101001011010010110100101701001042
:100030001101001011010010190100101B01001026
:100040001D0100101D0100101D0100101D010010F8
:100050001D0100101D0100101D0100101D010010E8
:100060001D0100101D0100101D0100101D010010D8
:100070001D0100101D0100101D0100101D010010C8
:100080001D0100101D0100101D0100101D010010B8
:100090001D0100101D0100101D0100101D010010A8
:1000A0001D0100101D0100101D0100101D01001098
:1000B0001D0100101D0100101D0100101D01001088
:1000C0001D0100101D0100101D0100101D01001078
:1000D0001D0100101D0100101D0100101D01001068
:1000E0001D0100101D0100101D0100101D01001058
:1000F0001D0100101D0100101D0100101D01001048
:100100001D0100101D0100101D0100101D01001037
:1001100000BE00BE00BE00BE00BE00BEEFF3058004
:10012000103800BEF2EB88710002001024020010AB
:10013000A801001090A31AE7D3DEFFFF42012110AF
:10014000FF010000683E0100793512AB4FF000005E
:100150002349086006C881F3088810474FF05040D3
:10016000006810B14FF00000F2E70FA40ECC002998
:1001700002D000F015F8F9E71A491B4A002000E008
:1001800001C19142FCD1002080F30A8817498847B9
:10019000174988471749884700BEFDE701C901C2D2
:1001A0009A42FBD3704700BF240200108801002050
:1001B00010F60020ACF6001010F60020043F0120DD
:1001C000A03F01100000082000000820A03F0110FF
:1001D00000100820001008200000000070470000F8
:1001E00008ED00E0043F01201C530220A143002041
:0801F0003504002099430020B2
:0801F80040E2001001000000CC
:10020000901701209C170120A8170120B417012086
:10021000C0170120CC170120D8170120E4170120B6
:040220003019012070
:10022400F8B500BF0348044B834202D0034B03B12B
:1002340018477047043F0120043F012000000000DC
:10024400064B0749C91A891048BF0131491003D028
:10025400044B0BB101481847704700BF043F01200D
:10026400043F01200000000010B5064C237843B978
:10027400FFF7D8FF044B13B10448AFF30080012308
:10028400237010BD884501200000000010F60020F6
:1002940008B5044B1BB104490448AFF30080BDE822
:1002A4000840CDE7000000008C45012010F6002036
:1002B400704700BF002108B5084602F003FA00BFEA
:1002C4002621024B024A034804F000BB34090120F2
:1002D400400901204C090120024B0348196804F02D
:1002E400F5BA00BFA85101207009012010B50A48D1
:1002F40004F0ECFA08244FF0010343EC40403220B0
:1003040001F0CAFD4FF0000343EC4040BDE810404B
:10031400024804F0DBBA00BF7409012084090120FB
:1003240038B54FF47E440D4DA3060CD0295D0C481E
:10033400013404F0CBFAB4F5803FF5D10A20BDE8CE
:10034400384004F003BA2146064804F0BFFA295D98
:10035400034804F0BBFA0134E6E700BFF45101207E
:10036400940901208C09012038B50024124DA206FD
:100374000ED0630716D0295D1048013404F0A6FAA4
:10038400B4F5006FF3D10A20BDE8384004F0DEB9BB
:1003940021460B4804F09AFA295D084804F096FABD
:1003A4000134E4E7202004F0D1F9295D034804F086
:1003B4008DFA0134DBE700BFF451012094090120D8
:1003C4008C09012038B50A2004F0C0F9094C04F165
:1003D400D805626813782A2B03D00748217804F0E3
:1003E40075FA0C34AC42F4D10448BDE8384004F04A
:1003F4006DBA00BF083401209C090120A80901201E
:100404004FF0FF30002108B500F066FF4FF0504276
:10041400FF20DFF838C05368916803F4C053B3F584
:10042400C05F07D1536803F4C053B3F5C05FF9D17B
:100434001064F0E7536803F4C051B1F5C05FF9D11B
:10044400916889B20CF80130ECE700BFF451012047
:1004540010B5184804F03AFA0023174C23604FF4FF
:100464007A7004F02DF9831C20D03928F7DC2F286A
:1004740007DC124B1B2843FA00F3F0D8DA07EED45A
:1004840010BD2368303803EB830300EB43000C49B1
:1004940020600C4804F01AFA21680B4804F016FA9C
:1004A4004FF47A7004F00CF9831CDED104F0F6F8F2
:1004B400D5E700BFC4090120C8510120FFDBFFF7C5
:1004C400CC520220F0090120080A012080B5002046
:1004D40084B000F0A1FD002444EC4440012000F06D
:1004E4009BFD012544EC4450022000F095FD0223BD
:1004F40044EC4430032000F08FFD032344EC4430EB
:10050400042000F089FD042344EC4430052000F06D
:1005140083FD052344EC4430062000F07DFD0623D2
:1005240044EC4430072000F077FD072344EC4430CA
:10053400082000F071FD4FF0080845EC44800920C4
:1005440000F06AFD092745EC44700A2000F064FDC0
:100554000A2645EC44600B2000F05EFD0B2344ECBE
:1005640044300C2000F058FD0C2344EC44300D20A2
:1005740000F052FD0D2344EC44300E2000F04CFDFD
:100584000E2344EC44300F2000F046FD0F2344ECCE
:1005940044301C2000F040FD1C2344EC44301D205A
:1005A40000F03AFD1D2344EC44301E2000F034FDDD
:1005B4001E2344EC4430202000F02EFD202344EC84
:1005C4004430212000F028FD212344EC4430222033
:1005D40000F022FD222344EC4430232000F01CFDD3
:1005E400232344EC4430242000F016FD242344EC5F
:1005F4004430252000F010FD252344EC443026200F
:1006040000F00AFD262544EC4450272000F004FDA8
:10061400272344EC4430282000F0FEFC282344EC3B
:100624004430292000F0F8FC292344EC44302A20EB
:1006340000F0F2FC2A2344EC44302B2000F0ECFCC4
:100644002B2344EC44302C2000F0E6FC2C2344EC17
:1006540044302D2000F0E0FC2D2344EC44302E20C7
:1006640000F0DAFC2E2344EC44302F2000F0D4FCBC
:100674002F2344EC443044EC408044EC407044EC80
:1006840040605B4803AB0DEB080201A901F08CFE4E
:1006940018B95749574800F005FDDDE902120198E1
:1006A40001F0BEFD04F034FB534806F0F9FE304679
:1006B40004F04CF8514804F009F9514804F006F9E3
:1006C4004E4804F003F9304604F040F84D4B2946F7
:1006D4004D4A4E4804F0FAF8304604F037F84C48D6
:1006E40000F060F94B4800F07FFB4B4804F0EEF853
:1006F40009F0E2FB00F0DEFB00F0FAFB15222146D4
:10070400444800F059F9454B1B68002B64D141481B
:10071400434900F0C3F9434804F0D8F800F0CAFB99
:10072400414800F0EDFB00285ED1404804F0CEF8CB
:100734003F49404804F0CAF800F0DAFB4FF47A70FD
:1007440001F0AAFB334800F0C5FA00221421314815
:1007540000F032F938492F4800F0A0F908221E2190
:100764002C4800F029F935492A4800F097F910225D
:100774001E21284800F020F93149264800F08EF95E
:10078400304F314E314D4FF47A7003F099FF10F130
:10079400020F8046F7D000242A4B04E00134122CC7
:1007A40003F10C03EFD018788045F7D104EB44042F
:1007B4004246414607EB8404254804F087F8A368C1
:1007C400C6F8008098472349234804F07FF8296835
:1007D400224804F07BF8D6E721490E4800F05EF980
:1007E400204804F073F899E71F4804F06FF8A3E772
:1007F400B01E0400400B0120690300205C0A0120A4
:10080400AC0A01203409012040090120FC0A01201E
:10081400E8340120E0340120200B0120BC520220E6
:100824008C0B01209C0B01201C0A0120AC0B012025
:10083400F4510220D00B0120EC0B0120F40B012019
:10084400000C012008340120A8510120C8510120C6
:10085400480A0120CC520220F0090120080A012094
:10086400740B0120800B0120D40B01202DE9F041F1
:1008740008274FF001084FF0000506461AE048EC3F
:10088400443045EC40300120002101F099FA1F2446
:1008940045EC44400120002101F092FA48EC444028
:1008A40045EC40400120002101F08AFA013F4FEA63
:1008B400460606D032064FF01E03E0D545EC443020
:1008C400E1E71E2345EC443045EC4440012000217F
:1008D40001F076FA64204FF0504201E0013813D061
:1008E40053685B00FAD401241F234FF0010242EC49
:1008F40044304FF0000242EC40300120002101F06E
:100904005FFA2046BDE8F0810446EDE7F0B583B018
:1009140007461E234FF001060C46019246EC443074
:100924004FF0000545EC40300120002101F048FA69
:100934001F2346EC443045EC40300120002101F0F7
:100944003FFA3879400000F0FE00FFF78FFF019A6C
:10095400E2B1E51C8020FFF789FF14F8010BFFF7D3
:1009640085FFAC42F6D11F234FF0000444EC443021
:100974000120002101F024FA1E2344EC443001201C
:10098400002103B0BDE8F04001F01ABA4020FFF79F
:100994006DFFE51C14F8010BFFF768FFAC42F9D1B9
:1009A400E1E700BF08B51E2000F036FBBDE80840B3
:1009B4001F2000F031BB00BF70B5364BC1F17F0181
:1009C400C2F13F0282B0344D1A604B4203F07F0300
:1009D400296001F07F0158BF5942534203F03F039D
:1009E40002F03F0258BF5A423629C8BF0131002ADB
:1009F4000446B8BF0732484200F00F0001F00F036D
:100A040058BF43420029B8BF0F31D2100911503AE0
:100A140010318DF805308DF804208DF806101E2352
:100A24004FF0010646EC44304FF0000545EC4030F1
:100A34000120002101F0C4F91F2346EC443045ECA9
:100A440040300120002101F0BBF920790DF10705A8
:100A5400400000F0FE00FFF709FF01AC8020FFF723
:100A640005FF14F8010BFFF701FFAC42F6D11F2379
:100A74004FF0000444EC44300120002101F0A0F9BF
:100A84001E2344EC44300120002102B0BDE8704034
:100A940001F096B9B0510120AC5101202DE9F04F7D
:100AA400804687B008468B460EF028FC002800F0EC
:100AB400988000214FF0010789460290009103912C
:100AC4009BF80060262E00F0E6801E240BF1010343
:100AD40001937C4B06EB86069D19053B1E4447ECAF
:100AE40044404FF0000242EC40400120002101F05C
:100AF40067F94FF01F0A47EC44A04FF0000242ECA4
:100B040040A00021012001F05BF998F804004000A6
:100B140000F0FE00FFF7AAFE4020FFF7A7FE15F83D
:100B2400010DFFF7A3FE4FF0000242EC44A00120A8
:100B3400002101F045F9002343EC44400120002149
:100B440001F03EF9AE42CAD19BF801102E2961D0C2
:100B5400009B13B1039B032B46D000241E23ADF846
:100B640014408DF8164047EC443044EC40300120EA
:100B7400002101F025F91F2347EC443044EC4030B8
:100B84000021012001F01CF998F8040005AD400093
:100B940000F0FE00FFF76AFE4020FFF767FE0DF14C
:100BA400170415F8010BFFF761FEA542F9D11F23C5
:100BB4004FF0000444EC44300120002101F000F91E
:100BC4001E2344EC44300120002101F0F9F8DDF843
:100BD40004B0009BD3B9029B09F101099945FFF6C2
:100BE4006FAF07B0BDE8F08F4FF00003002240461E
:100BF40005A9ADF814308DF81630FFF787FE0022F2
:100C0400404605A9FFF782FEDDF804B0039B0133DB
:100C14000393E0E72C49059147EC44404FF000036F
:100C240043EC40400120002101F0CAF847EC44A005
:100C34004FF0000343EC40A00021012001F0C0F874
:100C440098F8040005AC400000F0FE00FFF70EFE2B
:100C54004020FFF70BFE14F8010BFFF707FE06AB6D
:100C64009C42F8D11F224FF0000444EC44200120A0
:100C7400002101F0A5F81E2244EC442001200021AB
:100C840001F09EF89BF80220C2B10BF1020B029B0B
:100C9400013B02939DE7029B4046013B02930B4BB1
:100CA40019680B4B0A391A68FFF786FE0023039371
:100CB40001239BF8016000939B4406E7DDF804B030
:100CC400E5E700BFF514012000181800AC5101201D
:100CD400B05101202DE9F04F4FF03F0A4FF01E09AB
:100CE4004FF0010B4FF01F084FF0000785B03B4E4B
:100CF40001900DF10F057F224FEAEA03503B8DF876
:100D04000C30374B00241A60364B8DF80D40C3F875
:100D140000A018238DF80E304BEC449044EC409026
:100D24000120002101F04CF84BEC448044EC40805D
:100D34000120002101F044F8019B03AC1879400024
:100D440000F0FE00FFF792FD8020FFF78FFD14F8FE
:100D5400010BFFF78BFDAC42F6D147EC4480012038
:100D6400002101F02DF847EC44900120002101F00E
:100D740027F84BEC449047EC40900120002101F00F
:100D84001FF84BEC448047EC40800021012001F027
:100D940017F8019B80241879400000F0FE00FFF74B
:100DA40065FD4020FFF762FD3078FFF75FFD013CF1
:100DB400FAD147EC44800120002101F001F847EC0E
:100DC400449001200021AAF1080A00F0F9FFBAF1C9
:100DD400FF3F90D105B0BDE8F08F00BF185302204B
:100DE400AC510120B05101202DE9F04180461E266E
:100DF4004FF0010747EC44601F2547EC44504FF087
:100E0400000444EC406044EC405047EC446044EC43
:100E140040600120002100F0D3FF47EC445044EC33
:100E240040500120002100F0CBFF44EC445001204D
:100E3400002100F0C5FF44EC44600120002100F0D3
:100E4400BFFF47EC446044EC40600120002100F007
:100E5400B7FF47EC445044EC40500120002100F01F
:100E6400AFFF98F80400124C400000F0FE00FFF7BA
:100E7400FDFCA5198020FFF7F9FC14F8010BFFF71E
:100E8400F5FCAC42F6D11F234FF0000444EC44308F
:100E94000120002100F094FF1E2344EC4430012083
:100EA400002100F08DFF4046BDE8F041FFF712BF7E
:100EB40070170120002310B5084C01220849094885
:100EC400236008F015FB10B90123236010BD064B05
:100ED400064A07CA83E8070010BD00BFBC520220BF
:100EE4008C0C012020430120F4510220900C01209D
:100EF40000220249104608F0FBBA00BF8C0C012006
:100F040010B5C0B00021FF22044668460DF0B8FFBA
:100F1400114808F035FBFF21684608F0CBFB90B977
:100F2400214668460EF096F810B9012040B010BD75
:100F3400204608F041FB0028F7D00246074908483C
:100F440003F0F6F904E002460649054803F0F0F917
:100F5400002040B010BD00BF8C0C0120AC0C01205F
:100F6400F45102209C0C01200120704708B902486A
:100F740070470020704700BFF03401204FF4807C9C
:100F84000C4B00B553F8202003EB8003C00082F023
:100F9400400200F1804003F5805E02F0C00200F5DB
:100FA400203003F54053CEF800204160C3F800C060
:100FB40000BD00BF04800340DFF81CC0C90041EA43
:100FC40082015CF820200CEB8003514003F5805330
:100FD40001F00C011960704704800340054B53F87D
:100FE400202003EB8003514001F0010103F58053FD
:100FF4001960704704800340064B53F8202003EB2C
:10100400800382EA011202F0300203F580531A6071
:10101400704700BF048003404FF0000300B543EC69
:10102400440043EC40004FF0050E4FF4807C0C4B21
:10103400C20053F8201003EB800081F0400102F15C
:10104400804303F5203301F0C00200F5805100F520
:1010540040500A60C3F804E0C0F800C000BD00BFFF
:10106400048003404FF01F0C4FF480710C4B00B50B
:1010740053F8202003EB8003C00082F0400200F10B
:10108400804003F5805E02F0C00200F5203003F5D5
:101094004053CEF80020C0F804C0196000BD00BF62
:1010A400048003400FB400B5084883B003F090FBFC
:1010B400049B3BB105A91846019103F089F9044842
:1010C40003F086FB012003F09BF900BF340D0120DF
:1010D400F8120120EFF3108072B6064BD3E8CF1F4D
:1010E40001220029FAD1C3E8412F0029F6D1BFF328
:1010F4005F8F7047DB4801200023034AC2E88F3F1B
:1011040080F31088704700BFDB48012070B5164695
:10111400EFF3108472B6DFF848E0DEE8CF2F012346
:10112400002AFAD1CEE8423F002AF6D1BFF35F8FFE
:10113400012301F0070CCA0803FA0CF310F802C0EB
:101144001CEA030508D14CEA030C00F802C0CEE8FF
:101154008F5F84F3108870BD3046FFF7A3FF00BF94
:10116400DB480120F8B50F461946EFF3108672B636
:101174001C4DD5E8CF4F0123002CFAD1C5E8443FDC
:10118400002CF6D1BFF35F8F8A421BD8012402E002
:101194000132914222D3D30810F803E002F0070C85
:1011A40004FA0CFC1EEA0C0FF2D14EEA0C0E00F805
:1011B40003E010460023C5E88F3F86F31088984269
:1011C40007DBF8BD0023C5E88F3F86F310884FF096
:1011D400FF30002FF5D00698FFF764FF4FF0FF3083
:1011E400E8E700BFDB480120044A1078431CDBB267
:1011F400182B28BF10231370704700BF1C38012020
:1012040000B5DFF81CC083B001461F231822CDF8B7
:1012140000C00248FFF7A6FF03B000BD344D012013
:10122400440D01204FF0E022936843F00053936093
:10123400704700BF0021044B03F12002C3E88F1F55
:1012440001339342FAD17047D04801204FF0E02394
:101254004FF08032C3F80024C3F80424C3F80824F0
:10126400C3F80C24C3F81024C3F81424C3F81824B6
:10127400C3F81C24C3F82024C3F82424C3F8282466
:10128400C3F82C24C3F83024704700BF012300F0B6
:101294001F029340400941B1800000F1604000F515
:1012A4006140C0F8803103607047024A203042F840
:1012B4002030704700E100E00123064A410952F85A
:1012C400212000F01F008340134214BF012000209E
:1012D400704700BF00E100E0044B19B1C3F880017E
:1012E40018607047C3F88000704700BF00E100E059
:1012F40001224309034900F01F008240403341F8B2
:101304002320704700E100E0054A10309268054B45
:1013140052F82000C01A5F288CBF002001207047BB
:1013240000ED00E02038012010B582B0EFF3108406
:1013340072B6164BD3E8CFCF0122BCF1000FF9D11E
:10134400C3E84C2FBCF1000FF4D1BFF35F8F104AF8
:1013540010309268DFF83CC052F82020624508D073
:10136400914206D0CDE9000101F0F8F90199074B4B
:101374000098074A926842F82010BFF35F8F00225A
:10138400C3E88F2F84F3108802B010BDD948012020
:1013940000ED00E01D0100102DE9F04F06468A46DD
:1013A400154683B0EFF3108872B6714FD7E8CF2F8C
:1013B4000123002AFAD1C7E8423F002AF6D1BFF33D
:1013C4005F8F6C4991F90020002A7BDB6A4802EBAD
:1013D400420400EB840393F806C0103681F800C081
:1013E4006649A40089684FEA420B51F826E0AEEB47
:1013F40000015F292ED962498E4540F0848043F074
:10140400010E604B02340444043B1B1BC3F34A0328
:101414006FEAC3434FF421416FEAD3435A4420F89F
:10142400221000EB820253804BF601539380FF237A
:10143400D571C2F808A09371504B9B6843F826E01D
:10144400BFF35F8F0023C7E88F3F88F3108803B092
:10145400BDE8F08F2EF0010C9CF80710A9425AD970
:10146400B14601941E4603E0CB79AB4230D98C4699
:101474009CF9064004EB4401002C00EB8101F3DAF3
:1014840000944BF6015433464E460CF10409043BD8
:10149400A3EB0903C3F34A036FEAC3436FEAD343DD
:1014A400ACF80430384B0BEB02018CF8062040F802
:1014B4002130009B00EB810294809371D571C2F8B6
:1014C40008A0B9E701F04AF92A4991F900207DE71B
:1014D4006FF007010094019C33460C1B6146241AEB
:1014E400019431F8044F4E4644F30A04023401EBEC
:1014F4004404894601990C44C4F34A046FEAC44481
:101504006FEAD444C3E7CDE9002301F027F9DDE90C
:101514000023194873E71B4AA11CDD710144043AF6
:10152400251D521A0544ACF10401491BC1F34A01BB
:101534006FEAC141C2F34A026FEAC2426FEAD14183
:101544004FF4214E6FEAD24299800F4920F804E00B
:101554005A804AF6AA256246121A524155432D0D65
:10156400C3F808A09D7143F0010ECCF8001063E7A6
:10157400D9480120135302202038012000ED00E057
:101584001D01001080380120014880472DE9F041F9
:10159400EFF30583DBB29E46EFF3108572B635494F
:1015A400D1E8CF2F0123002AFAD1C1E8423F002A13
:1015B400F6D1BFF35F8FDFF8CC8040F00106D8F896
:1015C40008704AF6AA2357F82E7004462A4AA41A29
:1015D400644163431B0DB7425BB22ED092F90640BF
:1015E4009C4230D092F912409C4239D092F91E406C
:1015F4009C4237D092F92A409C4235D092F9364029
:101604009C4233D092F942409C4227D092F94E40FA
:101614009C422DD092F95A409C4208BF072413D013
:10162400164A002492F800C0137080F806C0C1E87E
:101634008F4F85F31088BDE8F081D8F80820104C4E
:1016440042F82E40ECE7002404EB440402EB84024D
:10165400FF2494714BF601549480E1E70524F3E7E9
:101664000124F1E70224EFE70324EDE70424EBE788
:101674000624E9E7D9480120203801201353022029
:101684001D01001000ED00E000B5DFF824C083B0B8
:10169400014605230022CDF800C00448FFF762FD8F
:1016A4000028A8BFC0F1330003B000BD17530220C7
:1016B400600D0120014B0B4403607047D0480120AA
:1016C40070B5104C104DAC420ED2FF26236863B1A6
:1016D400FFF78AFD01462046FFF7ECFFA680BFF323
:1016E4005F8F0834AC42F1D370BDFFF77DFD014636
:1016F4002046FFF7DFFF2671BFF35F8F0834AC424B
:10170400E4D370BD943E0120B43E012010B50446DC
:10171400FFF76AFD01462046FFF7CCFFFF23237144
:10172400BFF35F8F10BD00BF10B504460120FFF763
:1017340067FD034B03442360BFF35F8F10BD00BFFD
:10174400D0480120024B0B440360BFF35F8F704706
:10175400D04801200D4B1A68EFF3108172B6D2E81D
:10176400CFCF0120BCF1000FF9D1C2E84C0FBCF17E
:10177400000FF4D1BFF35F8F00221B68C3E88F2FE3
:1017840081F3108840BF002000217047C05202201E
:101794002DE9F04F2DED028B85B0EFF30583DBB21D
:1017A400103B9A0818BF01224FF0010103F0030B0C
:1017B40018BFA94CA94B08BFA94C0BEB820253F8E4
:1017C400225001FA0BF204F541539FEDA18B0292D2
:1017D4005A602FE0AB88190440F19480AB79002B58
:1017E40040F0DE80B5F90860002EC0F21C816B6900
:1017F40006EB460603EBC603D3E90267B7F1FF3FE6
:1018040008BFB6F1FF3F0ED004EB8B01A36A0A694F
:10181400D21AF31A934205D30123226A03FA0BF373
:10182400134200D10E61204600F032FCB042B941AF
:10183400C0F2F980B5F90860029B002EE363C9DBAE
:10184400D5F8149006EB460A09EBCA07BB68204694
:10185400D7F80C80019300F01BFC019B984271EBBC
:101864000801B7DBB8F1000FC0F2C080D7E904313A
:101874007C4A934200F0F8807A88B5F9080092B265
:1018840042EA0040984702460B4652EA030100F040
:10189400AD80002B80F2CD800199B1EB020E68EB94
:1018A400030839F93A30C7E902E8002B92DB68698A
:1018B40003EB430200EBC202D2E90271BE4578EBAE
:1018C400010C4FEA430285DBAC462CF8083F06E0E6
:1018D40003EB430100EBC1015A00D1E90271BE459B
:1018E40078EB01011A4405DB30F9323000EBC20C0D
:1018F400002BEDDA29F83A30ACF80060AB88190413
:101904003FF56CAF2B69EFF3108272B6D3E8CF0FBB
:1019140001210028FAD1C3E8401F0028F6D1BFF303
:101924005F8F4FF6FF76A8880023296900B2AE8046
:10193400C1E88F3F82F310889842FFF64FAF074605
:10194400A1466E6905F10808B5F9083007EB470EA2
:10195400002BC44606EBCE0215DBD2E90240AA46B0
:10196400019704E036F935309446002B09DB03EB8C
:10197400430506EBC502D2E90271BC4270EB0101DA
:10198400F0DA5546019FACF8007036F93E7026F83F
:101994003E30002FD8DAAB794C46002B3FF422AF0F
:1019A4000023AB71B5F90860721C33463BD06869FB
:1019B40005F1080E03E08E465A1C3FF415AF03EB05
:1019C400430200EBC2014F889C463F0430F9323099
:1019D400F1D5664581ED028BEED0AEF80030298951
:1019E400664620F83210A5F808C0E5E739F83A3021
:1019F4002B812B69EFF3108272B6D3E8CF0F01214C
:101A04000028FAD1C3E8401F0028F6D1BFF35F8F46
:101A14006B88296929F83A3000236E80C1E88F3F2A
:101A240082F31088D6E640BF05B0BDEC028BBDE85A
:101A3400F08F20460393019200F02AFB019A039B46
:101A440010EB020E43EB01082BE700BFAFF300805D
:101A5400FFFFFFFFFFFFFFFF00800B40CC51012081
:101A640000000B40F916002008460B6903919847C3
:101A74000028BBD00399D1E9002306E738B5384BD9
:101A84001C692CB1BDE838400A213648FFF712BE64
:101A94000321354800F0EAFA334D314BDD60FFF79E
:101AA400A3FB324A4FF0504E024403202C4B4FF01C
:101AB4000F0C18701A61DEF800204FF6FF715A708F
:101AC4005A69A3F802C014834FF00204A2F84840F4
:101AD4004FF00404A2F878404FF00504A2F89040B7
:101AE4004FF00604A2F8A8404FF00704A2F8C04043
:101AF4004FF00904A2F8F0404FF00A04A2F808419C
:101B04004FF00B04A2F820414FF00C04A2F8384126
:101B14004FF0010414864FF00804A2F8D840144C86
:101B24004FF00D0E4FF00E0C9C6008249980A2F823
:101B340050E1A2F868C1A2F8600011800D4A2C623D
:101B44000D49D360FFF7F0FB01210320FFF79EFB53
:101B54000A4B0A211C640348BDE83840FFF7AABDBC
:101B640098380120C052022000000B40D0480120C8
:101B7400FFFF1000CC510120F916002000200B407B
:101B84000048704798380120F0B583B09DF828408C
:101B94001D46034654B9CDE9000200F081FA019ACA
:101BA400009B824265EB0101A1425BDB1969EFF303
:101BB400108072B6D1E8CF6F0124002EFAD1C1E8AB
:101BC400464F002EF6D1BFF35F8FB3F902401F6971
:101BD400002C3EDBD3F814C004EB440E3CF83E105A
:101BE400002659800CEBCE01C7E88F6F80F3108874
:101BF4004888C1E902250130C0F30E00012838BF2E
:101C04000120089A48800A61099A40EA04404A611E
:101C14001A69EFF3108172B6D2E8CF7F0125002F45
:101C2400FAD1C2E8475F002FF6D1BFF35F8F9A88DD
:101C34002CF83E201A699C80C2E88F6F81F31088CB
:101C440001211C78DA68A14002F50153596003B000
:101C5400F0BD0023C7E88F3F80F310884FF0FF30BA
:101C640003B0F0BD204603B0F0BD00BFF0B516468A
:101C74001F4602690346EFF3108072B6D2E8CF4FD5
:101C84000121002CFAD1C2E8441F002CF6D1BFF385
:101C94005F8FB3F902101D69002945DBD3F814E006
:101CA40001EB41023EF832400EEBC20C5C80002492
:101CB400C5E88F4F80F3108805983546CCF810009E
:101CC40006983E46CCF81400BCF80200CCE9025653
:101CD4000130C0F30E00012838BF0120ACF8020027
:101CE40040EA0140D3F810C0EFF3108572B6DCE887
:101CF400CF7F0126002FFAD1CCE8476F002FF6D111
:101D0400BFF35F8FB3F804C02EF832C099801A690C
:101D1400C2E88F4F85F3108801211C78DA68A1404E
:101D240002F501535960F0BD0023C5E88F3F80F3ED
:101D340010884FF0FF30F0BD03464089B0EB214FCF
:101D44003ADD58690A1402EB420210B5D3F810C008
:101D540000EBC200EFF3108E72B6DCE8CF4F012225
:101D6400002CFAD1CCE8442F002CF6D1BFF35F8FBE
:101D7400428889B292B28A4207D000221B69C3E822
:101D84008F2F8EF31088002010BD6FEA42426FEA55
:101D9400524242800121002218699971C0E88F2FB4
:101DA4008EF3108893F800C0DA68084602F50153F0
:101DB40001FA0CF1596010BD00207047407870475B
:101DC4002DE9F04182B004460D4600F069F94FF068
:101DD400FF326FF00043241845EB0105A24273EB78
:101DE40005013CBF14461D46A61F45F1FF37B4420A
:101DF40075EB07033CBF0026374600F051F9301A53
:101E040067EB0101012871F1000106DA2046294639
:101E140002B0BDE8F04100F07DB900F041F986421E
:101E240067EB010100290ADB0021174B32460093BE
:101E340016483B460191FFF719FF0130E6D04FF0F9
:101E4400000C134A1349536A9F4204D8906AB04263
:101E5400DCD29F42DAD10B68EFF3108072B6D3E87C
:101E6400CF8F5FF0010EB8F1000FF8D1C3E848EF4F
:101E7400B8F1000FF3D1BFF35F8F0B68C3E88FCFC6
:101E840080F3108820BFDEE7BD16002098380120BB
:101E940000000B40C05202202DE9F04182B00646FA
:101EA40000F0FEF84FF47A7304464FF0FF306FF001
:101EB4000042E6FB0341A04272EB01033ABF044631
:101EC40015460D46A61F45F1FF37B44275EB0703CF
:101ED4003CBF0026374600F0E3F8301A67EB0101F7
:101EE400012871F1000106DA2046294602B0BDE856
:101EF400F04100F00FB900F0D3F8864267EB01011E
:101F040000290ADB0021174B3246009316483B4652
:101F14000191FFF7ABFE0130E6D04FF0000C134AFD
:101F24001349536A9F4204D8906AB042DCD29F425C
:101F3400DAD10B68EFF3108072B6D3E8CF8F5FF07D
:101F4400010EB8F1000FF8D1C3E848EFB8F1000F63
:101F5400F3D1BFF35F8F0B68C3E88FCF80F3108892
:101F640020BFDEE7BD1600209838012000000B409A
:101F7400C0520220EFF30582D2B282B1384B5A6AC2
:101F84008A4202D200221046704714BF0122002266
:101F94009B6A834228BF42F001021046704770B525
:101FA40084B003922F4A0646D368157818460C4627
:101FB400029300F06DF8029B05F1040C53F82CC059
:101FC400039AACEB000C301A64EB0101604571F12B
:101FD40000010FDB20BF224B596AA14207D314BF73
:101FE400012200229B6AB34228BF42F0010210463C
:101FF40004B070BD029200F053F8864264EB010114
:102004000029029A1BDB18492346CDE90012154822
:102014003246FFF72BFE011E11DD114B5A6AA24214
:102024001CD39B6AB34217D30E48FFF785FE0C4BB3
:102034005A6AA242D3D20022104604B070BD084BA3
:102044005A6AA242F7D3121B18BF01229B6AB342F9
:1020540028BF42F00102CAE7A242E5D120BFE3E76C
:1020640000000B4098380120BD16002010B4054B29
:10207400054C064AA04214BF1846581C10BCFFF772
:1020840045B800BF384D012000800B407C0D012075
:102094000346416A0A46986A596A8A42FAD17047E5
:1020A400034B596A0A46986A596A9142FAD17047B1
:1020B40000000B4000B58E46154A536A9C46916A4F
:1020C400536A6345FAD1401853EB0E034FF00002F4
:1020D40028BF0122BAB10E4B5A6A531C08BF1046DE
:1020E40008D04FF0FF33184609494A6A9A42FCD394
:1020F4009A4207D1064B02E0596A914202D1996A89
:102104008142F9D300BD024A526A9342ECD8EFE708
:1021140000000B40074A536A9942FCD8994207D100
:10212400044B02E05A6A914202D19A6A9042F9D869
:10213400704700BF00000B4000EB400C4FEA8C0CD2
:102144000CF1804C0CF5803C70B51E46DCF8043074
:10215400041FB3F5803F38BF4FF48033E4B238BF77
:10216400CCF80430012C2ED94FF40065284B0CF523
:10217400405ECEF8005053F820E0BEF1000F17D1B6
:10218400DCF800E0012C8EEA421202F0E0020CF5C9
:10219400805ECEF800202BD94FF4006143F8206014
:1021A4004FF480330CF500521160CCF8043070BD4C
:1021B4005D69B5FBFEFE0EF1010E0EEB4E0EBEF197
:1021C400030EFCD2DCE70129CED103240CF54053E5
:1021D4001C60DCF80830DB07FBD5DCF800300CF5BC
:1021E400805E83EA421303F0E003CEF80030084B2C
:1021F4000122DCF800404C4004F00304CEF8004017
:1022040002FA01F1DCF808200A42FBD0C4E700BF5F
:10221400404D0120014B53F820007047404D0120F0
:102224002DE9F041584C0646206C1746B0F5803F26
:1022340038BF4FF480320B464FF0030184B038BFEF
:102244002264524A504CD163626CD207FCD5E26BD3
:102254004F4982F0200202F0E002CA63E26B4A4C6A
:1022640082F0010202F00302CA63626C9507FCD596
:102274004FF400614FF48038464A474DD163474AD2
:1022840003936A6101213246C4F8408044480097B0
:1022940000F046F94FF40061039B07FB03F3B6FB20
:1022A400F3F6636B434538BFC4F83480374B2A696F
:1022B40019633AB16B69B3FBF2F3013303EB4303E4
:1022C400033BFDD23049324A0B6B03F0E003136346
:1022D4000B6B83F0020303F0030313638B6B580748
:1022E400FCD54FF400644FF480332A4A14632D4A1A
:1022F4004B632A610A6C244C9A424FF0030238BFA4
:102304000B64224BDA63636CDA07FCD5E36B204A77
:1023140003F0E003D363E36B1B4983F0010303F091
:102324000303D3634B6C9B07FCD54FF480334FF40A
:102334000064184A6E61D4630B64CA6C9A4238BF55
:10234400CB644FF40061114BAA6999643AB16B698B
:10235400B3FBF2F3013303EB4303033BFDD24FF42E
:1023640000604FF48031084A094C936C83F04003B9
:1023740003F0E003A364074B084CAC619864D16498
:1023840004B0BDE8F08100BF00000140003001400E
:102394000010014000200140404D0120006CDC028F
:1023A40000000540001BB7002DE9F04F4FF4A07862
:1023B400964685B00391DFF86491564901934945E7
:1023C4000AD908F1FF38A1F53B51B8F10F0FA1F17B
:1023D4002001F4D1002066E0072301F537220291A1
:1023E40003FB03F102F5D872B2FBF1FA82454FF018
:1023F400010C4FF002074FF003064FF004054FF0B5
:1024040005043FD0B3F1010A00F082800AFB03F116
:10241400B2FBF1FB584549D01CB303FB04F1B2FBFA
:10242400F1FB58454BD0E5B105FB03F1B2FBF1FBE1
:1024340058454DD0AEB106FB03F1B2FBF1FB584554
:102444004FD077B107FB03F1B2FBF1FB584551D0F4
:10245400BCF1000F05D00CFB03F1B2FBF1FB83458B
:102464004DD0534603FB03F1B2FBF1FA824504F16C
:10247400FF3405F1FF3506F1FF3607F1FF370CF1A4
:10248400FF3CBFD101FB10210029BBD172461F467E
:10249400DDF80CA00120204901FB08F1CAF8001066
:1024A4001360019B1F6005B0BDE8F08F01FB102194
:1024B4000029B1D157467246DDF80CA0EAE701FBCA
:1024C40010210029AFD172462746DDF80CA0E1E7C0
:1024D40001FB10210029ADD172462F46DDF80CA076
:1024E400D8E701FB10210029ABD172463746DDF84D
:1024F4000CA0CFE701FB10210029A9D1DBE701FBE8
:1025040010210029ADD172466746DDF80CA0C1E761
:10251400029956E750262F00001BB70050F80C0014
:1025240010B5029C8E464FEA043C4CEA034C1C4B0B
:10253400B3FBF1F30168B2FBF3F4002920DB194A81
:10254400194B904214BF4FF480424FF40042174994
:102554001A6003F580531A608B6832EA0303FBD1D7
:10256400212200F540530433C0F800E084601A606F
:102574000268002AFCDA0822C0F80CC01A6010BDF8
:10258400036803F03F037345D9D18368C3F30B0396
:10259400A342D4D1C36803F4EE236345CFD110BD65
:1025A400001BB700008005400020024000000240EC
:1025B4004FF0804C214B00B5C3F800C0002839D03F
:1025C400DFF888C0A3F54053C3F81CC0DFF880C00F
:1025D40040F0010080EA0C0CC3F820C059629862F4
:1025E4004FF0804E4FF0E061144B1548DFF864C0A3
:1025F400C3F800E0C0F808C019602AB94FF00042DF
:10260400A3F580531A6000BD4FF47A7303FB02F202
:10261400B2F1807F2ABF6FF07F4313461A464FF012
:102624008041DFF834C00748CCF80030064B4260E4
:10263400196000BD034BD861D2E700BF00B00D4064
:1026440000A0014000800D4000A00D40D3C007B0A1
:102654002D3FF84FF3FFFF01B8510120012300EB98
:102664004000800000F1804000F584104160036068
:10267400704700BF10B5002482B00B46E48A0021E5
:1026840041E800F1CDE900034B0254BF10210421BD
:1026940044F25220A047DDE9002386460A214FF484
:1026A4008170F44602B0BDE8104060470023DB8A25
:1026B400002242E800F2520201D4102118470421FA
:1026C400184700BF08B5034608462BB193FAA3F395
:1026D400B3FA83F341F020001946FFF7CBFF00BFA4
:1026E40008B503460846191E02DB1AB140F0300053
:1026F400FFF7C0FF40F02000FAE700BF034AD2F81A
:102704002838002BFBD0BFF35F8F704700000E40CA
:102714000021044B044ABFF35F8F43F8041B934228
:10272400F9D170470C080E402C080E404FF42A6C67
:102734004FF48D70054A064B0649C2F800C0D060BC
:1027440019605368002BFCDA704700BF0080044016
:1027540000A0044000B0FA00704700BF08B501486B
:10276400FEF7A0FCA00D012038B5054C054DAC4288
:1027740004D254F8043B9847AC42FAD338BD00BFA6
:10278400B43E0120F43E012038B5054C054DAC4261
:1027940004D254F8043B9847AC42FAD338BD00BF86
:1027A400E03E0120F43E01200648DFF828C0064B35
:1027B400064A0749C0F800C01A608B6832EA03036E
:1027C400FBD170470020024000300240F6FFF303C3
:1027D400000002407F3BEFEF044BDB6CB3F5004F8E
:1027E40003D14FF48022024BDA6470470000115089
:1027F400002011504FF0E022044BD2F8881D0B4307
:10280400C2F8883D10EE3004704700BF0303300067
:102814006FF06041044B054A19609368DB4333F061
:102824006043FAD1704700BF00300240000002400C
:1028340010B545F25320FFF739FFBDE810400346B9
:102844000420184710B545F25320FFF72FFFBDE8C9
:102854001040034601201847FEF7ECBC10B5044CA9
:102864004FF48872A16803480CF0D2FCA06010BD3C
:1028740000ED00E000000020002370B52B4C82B076
:10288400C4F88430FFF752FF0122294BDA63636CEA
:10289400012BFCD10321264A244B11639C6B012C90
:1028A400FCD10226052521460523224A224800960A
:1028B400FFF736FE21462B46204A21480095FFF7B4
:1028C4002FFE0022042031461E4BFFF735FC214623
:1028D400284600221C4BFFF72FFC0022082011463B
:1028E4001A4BFFF729FC002209201146174BFFF76A
:1028F40023FC002206201146134BFFF71DFC002287
:10290400114B07201146FFF717FC0420FFF782FC48
:1029140000240F4BA3FB0035AD0CE0B22946013473
:10292400FFF79CFE062CF8D102B070BD00000140F8
:1029340000300140002F685900000540008C864794
:1029440000800540001BB70080D1F008006CDC0259
:1029540083DE1B4380F30A88704700BF86B003B44C
:1029640051FC0804CDE9020151FC0904CDE904013C
:1029740051EC0A04CDE9060103BCF047BDE8005060
:102984004EEC00C4BDE800504EEC01C4BDE800505C
:102994004EEC02C400BD000000B5FFF7DFFF02E00B
:1029A40010FE30F4F8D441EC100443EC112400EE92
:1029B400010410EE010480EE200451EC1004704771
:1029C40000B5FFF7CBFF02E010FE30F4F8D441EC81
:1029D400100443EC112400EE010410EE210480EEF7
:1029E400200451EC3004704700B5FFF7B7FF02E054
:1029F40010FE30F4F8D410B541EC100443EC11246B
:102A040051EC040453EC0524A0FB024C5FF0000ECF
:102A1400E0FB03CEE1FB02CE4CEC20440024E1FBBE
:102A240003E444EC30E480EE200451EC5004BDE8AF
:102A34001040704700B5FFF791FF02E010FE30F43C
:102A4400F8D441EC100443EC112451EC2104A0FB14
:102A540001126FEA820252FB100052FB12F252FB87
:102A64001000A0EBD07C53EC04245CFB13F153EC7A
:102A74001524A1FB022001FB030053EC4424A2EB28
:102A8400000050FB1CF24FEA111312EB017043EBF0
:102A9400E27140EA515020EA915020F0070053ECD3
:102AA4007524A0FB023C53EC752400FB03CC01FB12
:102AB40002CC53EC0424ACEB824C40EA5C70A0F1F1
:102AC400010041EC400480EE200451EC7004704796
:102AD40000B5FFF743FF02E010FE30F4F8D441ECF8
:102AE400100480EE220410EEB204704700B5FFF724
:102AF40035FF02E010FE30F4F8D440EC700400EE30
:102B0400010410EE210480EE200451EC30047047DF
:102B140000B5FFF723FF02E010FE30F4F8D440ECD8
:102B2400600400EE010410EE210480EE200451EC58
:102B34003004704700B5FFF711FF02E010FE30F4D7
:102B4400F8D441EC800400EE010410EE010480EEA0
:102B5400400410EE1304704700B5FFF7FFFE02E0D7
:102B640010FE30F4F8D441EC800400EE010410EEC1
:102B7400010480EE400410EE3304704700B5FFF703
:102B8400EDFE02E010FE30F4F8D441EC100443EC06
:102B9400112400EE010410EE3004C0F300707047FD
:102BA40000B5FFF7DBFE02E010FE30F4F8D443EC8E
:102BB400102441EC110400EE010410EE30F48CBF3B
:102BC40001200020704700BF00B5FFF7C7FE02E0F8
:102BD40010FE30F4F8D443EC102441EC110400EE60
:102BE400010410EE30F42CBF01200020704700BF18
:102BF40000B5FFF7B3FE02E010FE30F4F8D441EC68
:102C0400100443EC112400EE010410EE30F42CBF48
:102C140001200020704700BF00B5FFF79FFE02E0CF
:102C240010FE30F4F8D441EC100443EC112400EE0F
:102C3400010410EE30F48CBF01200020704700BF67
:102C440038B5044609480CF02FFD20460BF0E8FD8A
:102C5400054606480CF016FE2DB1054B2C449C424B
:102C640001D8284638BD0348FEF71CFA943E0120DB
:102C740000000820AC0D012010B5044605480CF0F6
:102C840013FD20460BF0D4FDBDE8104001480CF0C4
:102C9400F9BD00BF943E01209A4238BF8854704762
:102CA400704700BF2DE9F04F83B00F461146DDE9B0
:102CB4000EB292079846DDE90C93064629D00D46DC
:102CC4009BB109EB030405EB040A01950D460D9332
:102CD400AAEB040214F8010D43463946B047A14556
:102CE400F6D129460D9B019D1D440F9B9B070CD5D6
:102CF4006C1AA34509D92A46434639462020013493
:102D0400B0475C4505F10105F5D3284603B0BDE89D
:102D1400F08F5B4515D28A461C468946ABEB03050A
:102D24000D4452464346394620200AF1010AB04771
:102D3400AA45F6D149462346DDF83090002CC0D18F
:102D4400E3E70D46002BBCD1DFE700BF2DE9F04FD0
:102D54000F460F9906469DF82C008D079046DDE935
:102D64000CA299468346099CDDF828C00E9B49D4E1
:102D7400002B42D1944545D201F0010504F1FF3EF8
:102D84003020E64405E00CF1010C62450EF8010F19
:102D940002D9BCF1200FF6D1002D00F087806345E5
:102DA40030D9601E4FF0300E604405E00CF1010C88
:102DB4009C4500F801EF25D0BCF1200FF6D1CD06DB
:102DC4000ED5480551D4624564D0634562D0BAF14A
:102DD400100F4DD0BAF1020F55D0BCF1200F2DD1F8
:102DE4002022CDE90B310A924B4642463946304601
:102DF4000994BDE8F04FFFF755BF11F001052ED13E
:102E04009445BBD3CD061ED54805E0D4BCF1000FD4
:102E1400D9D1BAF1100F5FD0BAF1020F74D03022B9
:102E24004FF0010C2270BBF1000F12D1480742D5BC
:102E34002B2204F80C200CF10102D2E762460CF1BB
:102E4400010C3020A054BCF1200FC9D0BBF1000FFD
:102E5400ECD02D2204F80C200CF10102C1E798B348
:102E6400944503F1FF3389D399E7BAF1100FB7D131
:102E74008D063DD5BCF1200FB2D0582204F80C20A9
:102E84000CF1010CA9E7BCF1200FA9D062460CF1AA
:102E9400010C08E0BCF10102BBD0BAF1100F35D02F
:102EA400BAF1020FCDD16220A05496E7CD06CAD55F
:102EB400480588D58BE70A0749BF2022624604F8F3
:102EC4000C200CF101028CE711F00C0F00D0013B37
:102ED4009445FFF453AF62E78A0613D47822227034
:102EE40030224FF0020C6270BBF1000F9ED0B0E7AD
:102EF400BCF1200F3FF474AF782204F80C200CF1DD
:102F0400010C6AE75822EAE76222E8E78D06ACF191
:102F1400020004D54FF0580E04F800E091E74FF09A
:102F2400780E04F800E08CE700B9704701F00EBC9D
:102F340010B1D1E900311847704700BF000000000C
:102F44002DE9F04F97B09DED207BDDE9225B8046B3
:102F5400894651EC170B9A46249B0C920793024620
:102F64000B468DED047BFFF70DFE002840F0E28157
:102F7400DDE904014FF0FF326FF48013FFF714FE14
:102F8400002840F0CB80DDE904014FF0FF32BA4B5A
:102F9400FFF746FE002840F09F80DDE90467B2A3F6
:102FA400D3E9002330463946FFF73AFE002840F0C3
:102FB4008280AFA3D3E9002330463946FFF7F4FDFE
:102FC400002878D13046394600220023FFF7ECFD73
:102FD400002840F098800D90079B302113F4806FF7
:102FE40008BF06250EAA2B46A5F1200605E0013BE5
:102FF400B34202F8011B00F06481092BF7D81E4686
:10300400ED1ADDE90401FFF799FD9C4B044603EB3F
:10301400C60393ED007B8DED087BFFF76BFD024645
:103024000B46DDE90401FFF7CFFCDDE90823FFF7D8
:10303400DFFCCDE90A01FFF793FD0746FFF76CFDBE
:1030440002460B46DDE90A01FFF7BEFC00228C4B69
:10305400CDE90A01FFF7E4FD002800F0888001377C
:103064003846FFF759FD02460B46DDE90801FFF734
:10307400AFFD08B100270134002E00F088800DF167
:103084003703DFF810C258190DE0ACFB0721C9085B
:1030940001EB8102A7EB42023032092F00F8012F25
:1030A40040F2FA800F46202D06F1FF3605F10105A6
:1030B400EBD1202586E0079B9DED047BCDE923B36E
:1030C4004946534640460C9A8DED207B229517B015
:1030D400BDE8F04F00F080B9079B494658074CBF44
:1030E40004230323404621935346079A48BF654C63
:1030F400CDE922B258BF644C0C9A209417B0BDE8B5
:10310400F04FFFF7CFBD3B46324600200021FFF7CA
:103114005BFC0123CDE904010D935DE7079B03F0FC
:1031240002029C07049200F0F3800C9F3D46574E28
:10313400341D14F8010D2A4653464946C047A64299
:1031440005F10105F5D1049B3C1D63B10C9D631B86
:103154009B4508D922465346494620200134C0479E
:10316400631B9B45F6D8204617B0BDE8F08F0022BC
:10317400DDE90A01424BFFF717FD00287FF47CAF1D
:10318400002F40F0C1800137002E7FF478AF204635
:10319400FFF7B0FC02460B46DDE90401FFF714FC1F
:1031A4000022374B06460F46FFF7FEFC40B9304677
:1031B40039460022324BFFF733FD002800F0A0808F
:1031C4000DF13703324859190DE080FB0476C2EB48
:1031D400A60202EB8206A4EB4606303614460135FD
:1031E40001F8016F72B3202D4FEAE472EDD1079A12
:1031F40002F00302012A14D1BBF1000F11D00D9A81
:10320400002A60D00BF1FF3BBBF1200F09D930221B
:103214002B4404E001355D4503F8012F18D2202D1D
:10322400F8D1079B0EACCDE902B30094534649464E
:1032340040460C9A0195FFF735FD0446204617B029
:10324400BDE8F08F079A02F00302012A00F0AF8074
:10325400202DE6D00D9B002B3FD02D220DEB050336
:1032640083F838200135DCE70000000065CDCD414E
:103274000000000065CDCDC1FFFFEF7FF0170120F6
:103284000000E03F200E0120280E0120300E012016
:1032940067666666CDCCCCCC202D3FF40AAF3021D6
:1032A4002E445A1905E00135202D02F8011F3FF480
:1032B40000AFAE42F7D12E226E44013586F8382095
:1032C40080E720259DE6079A12F00C0F5AD00BF1E7
:1032D400FF3BAB459BD8202DA3D0079B5A0706D5AF
:1032E4002B220DEB050383F83820013599E71B07E2
:1032F40097D520220DEB050383F83820013590E79C
:10330400013424F001045BE7F9077FF5B5AE3AE731
:10331400BBF1040F7FF609AF0C9B1D46043B03EB86
:103324000B072A465346494620200135C047AF4281
:10333400F7D1FBE6079B03F002029D07049225D018
:103344000C9F3D46224EF41C14F8010D2A465346A8
:103354004946C047A64205F10105F5D1049BFC1C72
:10336400002B3FF400AF0C9D631B9B457FF6FBAE27
:1033740022465346494620200134C047631B9B45DF
:10338400F6D8F0E6AB453FF642AF4AE7BBF1030F90
:10339400D6D90C9B1D46033B03EB0B072A46534629
:1033A400494620200135C047BD42F7D1C9E7BBF1EA
:1033B400000F3FF44DAF0D9A002A84D00BF1FF3B70
:1033C4005D45FFF424AF202D7FF447AF29E700BF0C
:1033D4002C0E0120000000002DE9F04F9FB01E4686
:1033E400DDE928ABDDE92B982A9B04460D460B92B8
:1033F4000A9352465B4650465946FFF7C3FB0028E2
:1034040040F0C680504659464FF0FF327B4BFFF7E1
:1034140007FC002840F0BC80504659464FF0FF326C
:103424006FF48013FFF7C0FB002840F0B1805046D2
:10343400594600220023FFF7B7FB002840F0DD8146
:10344400CDE908ABDDE9081218F480600B460F469D
:1034540008F400610C921491159040F0A880134375
:1034640040F0D080002940F0EC8106230A9318F044
:103474000202109240F0DD814B46042B38BF042336
:103484000E920422043B1292149350465946002291
:103494000023FFF789FB002840F0FB819DED087BAA
:1034A400149B0B9A03930A9B8DED007B029328F4E3
:1034B40000630493294633462046FFF741FD024644
:1034C40018F0200F334629460CBF6520452002F131
:1034D4000108A047129B0DF1580A03F1FF3B0E9B14
:1034E400002283EAE37C5046DFF814E10B9FACEB47
:1034F400E37CD90FCDF8208002E0202AC44610D006
:10350400AEFB0C384FEAD80808EB8803ACEB430356
:1035140001303033BCF1090F02F1010200F8013C23
:10352400EBD805234FF0000C06930A23DDF8208026
:10353400CDE90121CDE9033CCDF800A03346424654
:1035440029462046CDF814B0FFF700FC109B8246B4
:10355400D3B1A0EB0708C14516D907EB08023346DF
:103564002946202008F10108A047C145F5D87B1E53
:103574004B44C7F10102A3EB0A035244914538BFFF
:1035840000230AF1010A9A4450461FB0BDE8F08FA7
:10359400334629462046CDE928AB0A9CCDE92B9831
:1035A4000B9A2A941FB0BDE8F04FFFF7C9BC57EA45
:1035B400020329D100293FF45AAF00230E930A9B3A
:1035C4000E9A934200F3B9810027504659460022CF
:1035D4000023FFF7E9FA002840F015819DED087BF0
:1035E40028F4006343F480632C938DED287B3346E9
:1035F40029462046CDE92A790B9AD3E7FFFFEF7FCE
:10360400CDCCCCCC06230A930C9BC3F30A50A0F276
:10361400FF30FFF76FFABCA3D3E90023FFF7E8F903
:10362400BBA3D3E90023FFF7BBF90C9BCDE90E0143
:10363400C3F3130343F07F5138460022AC4B41F4EB
:103644004011FFF7C1F99EA3D3E90023FFF7D0F996
:1036540002460B46DDE90E01FFF7A2F9FFF76EFA09
:103664000E90FFF747FA98A3D3E90023CDE90C01A4
:10367400FFF7BEF900229F4BFFF792F9FFF75EFABE
:1036840093A3D3E900230746DDE90C01FFF7B0F962
:10369400CDE90C013846FFF72DFA8FA3D3E90023B7
:1036A400FFF7A6F902460B46DDE90C01FFF78CF99A
:1036B40002460B46CDE90C23FFF79AF9CDE9100138
:1036C400DDE90C0102460B46FFF76AF90022CDE959
:1036D4001201DDE91001884BFFF7B0F90022874B96
:1036E400FFF75EF902460B46DDE91001FFF7A6F984
:1036F4000022834BFFF754F902460B46DDE9100123
:10370400FFF79CF9CDE91001DDE90C2300204FF00F
:103714008041FFF759F902460B46DDE91001FFF736
:103724003FF902460B46DDE91201FFF787F9002253
:10373400744BFFF735F907F2FF3C00224FEA0C53B4
:10374400FFF756F902460B46DDE90801CDE90C23E3
:10375400FFF72AFA50B1DDE90C010E9B0022013B70
:103764000E93664BFFF76AF9CDE90C01DDE90C0114
:103774000E9B02466333C62B08F002031093149B7E
:103784002DD8002B5FD0042312930A433FF417AFC4
:10379400DDE9080152A3D3E90023FFF72DFA48B16C
:1037A400DDE9080150A3D3E90023FFF7FDF9002860
:1037B4007FF405AF0A9B002B51D0159A002A00F024
:1037C400AB80013B0A93129B994505D9109B002BB2
:1037D40000F0AE80022310930023149344E02BBB2B
:1037E400B9F1050F4FD908F00203002B49D1052385
:1037F4001293A9F1050314933AE00BF10043CDF8B9
:1038040020A009931EE628F4006343F48063204655
:10381400CDE92A792C933346DDE9086734462946F5
:1038240007F10045CDE928450B9ABBE60523129321
:10383400ABE70222002310920422149312920E93F7
:1038440023E60527C1E6B9F1040F1FD9109B002B0D
:1038540076D104231293A9F10403149304E0129B78
:1038640099455ED80A9B14930E9B002B3FF40DAE32
:10387400DDE90801DDE90C23FFF7E0F8CDE90801F3
:1038840003E60223109305231293F1E70423129312
:10389400EAE7149BDDE908A703930A9B07F1004BB1
:1038A400029328F400630B9A049329463346204676
:1038B400CDE900ABFFF744FB024601E6AFF300801D
:1038C40061436F63A787D23F71A379094F930A407D
:1038D4001655B5BBB16B0240EF39FAFE422EE63FF6
:1038E4002D431CEBE2361A3F0000000080842E4179
:1038F4000000F83F0000E03F00002C40000024409E
:10390400000018400000F03FFB799F501344D33F60
:10391400B3C8608B288AC63F129B994515D8149268
:10392400A2E7109B23B10A9B1493022310939BE7F5
:10393400129BA9EB0303149396E79B1A5F1E44E6BC
:1039440004231293022310938EE7109B002BEFD0D5
:1039540002231492109387E72DE9F04F91469A4C75
:103964009A4AB1F1000A9BB018BF834614601878D4
:10397400974ADDF8908008BF9346002800F08A82B9
:103984001D460026CDF8209008E032465146089B9B
:10399400D84701362878002800F0C780252805F18B
:1039A4000105F2D100222B4613F8011BA1F12000DE
:1039B40010280AD8DFE800F03F09093B0909090982
:1039C40009090937093309092F00A1F13000092831
:1039D40040F289802A2900F0E98000242E2900F091
:1039E40094800027A1F1680012282CD8DFE810F099
:1039F4004E012B0049012B0040012B002B002B0012
:103A04002B002B002B002B0027002B002B002B005E
:103A14002B002B0027001D4642F00102C3E71D4680
:103A240042F00202BFE71D4642F00402BBE71D4616
:103A340042F01002B7E71D4642F00802B3E7697886
:103A440042F48072013367291D467ED8242940F24E
:103A5400B880A1F12503422B00F2B380DFE813F014
:103A64005101B100B100B100B100B100B100B10029
:103A7400B100B100B100B100B100B100B100B100BA
:103A8400B100B100B100B100B100B100B100B100AA
:103A9400B100B100B100B100B100B100B100B1009A
:103AA4001E013A011E01B100B100B100B100B10024
:103AB400B100B100B100B100B100B100B100B1007A
:103AC400B100B100B100B401B100B100B100B10066
:103AD400B100B100B100B100B100B4015801B401AA
:103AE4001E013A011E01002404EB840401EB44048A
:103AF40019781D46A1F130000928A4F1300403F11E
:103B04000103F1D92E297FF46CAF69781846A1F12D
:103B14003007092F42F4806240F225812A2900F0FF
:103B240032811D46002701335CE73446DDF82090DE
:103B3400B14501D809F1FF364B46324651460020C3
:103B4400D84720461BB0BDE8F08FA1F16903DBB272
:103B54000F2B36D8012049F2410C984010EA0C0092
:103B640040F0F4800A2B35D0072B2AD158F8041BD7
:103B7400002940F0108122F0100412F4806144F016
:103B8400210400F00A8112AA082305931023CDE929
:103B9400002032460694049703930023029351466F
:103BA4005846089BFFF7D2F80646F3E658F8044B4C
:103BB4006978002C1D46BCBF42F002026442013306
:103BC4000CE70846E1E600BFC1380020B4510120EB
:103BD400092C002058F8049B002F99F8000014BF0A
:103BE4003B464FF0FF33002800F08183494603EB46
:103BF400090C04E011F8013F002B00F043818C45CF
:103C0400F8D1ACEB0901530540F12081B94228BF3A
:103C1400394612F0020300F083820223CDE90948F9
:103C240032468846089C37440B9307E023465146A6
:103C3400D84719F8010F013610B13246B742F5D111
:103C44000B9B4146099CDDF82880002B3FF4A2AE73
:103C540037468C427FF69EAE2644089C761A3A4636
:103C64002346514620200137D847B742F7D191E681
:103C740069786C297FF4E4AEA97842F44072EB1CB5
:103C8400E1E6697842F400720133DCE66978682978
:103C940000F0FB8042F080020133D4E6672900F093
:103CA400C980472900F0CD80452900F0CC80CDE9BA
:103CB400034208F10708029728F007083246F8E89B
:103CC40002675146CDE900675846089BFFF784FB1D
:103CD40006465FE6462908BF42F02002CDE90342CA
:103CE40008F10708029728F007083246F8E8026747
:103CF4005146CDE900675846089BFFF721F906466F
:103D040048E6324651462520089BD847013641E60D
:103D140008F104039207099306F1010740F1C380F7
:103D24003246514698F80000089BD847012C40F2CF
:103D3400B4812644089C3A46234651462020013744
:103D4400D847B742F7D1DDF8248023E66F2974D031
:103D540040F24182782900F086814FF00A0922F06E
:103D640010024B4638E0002707EB870701EB4701B9
:103D7400A1F1300710F8011FA1F13003092BF3D989
:103D84000546431C2EE658F8047BA97802356B1CC3
:103D940027EAE77726E642F0210412AA944602E0D5
:103DA40020283FF4F1AE01F00F03092B94BF303308
:103DB40037330F298CF8003000F101000CF1010CAD
:103DC4004FEA1111ECD8DFE6582966D0622940F099
:103DD40089804FF002094B4612F4806C00F0D480C5
:103DE40022F00D02099212F4007140F07B8112F46A
:103DF400807008F1040940F03882510640F13A819C
:103E040098F80010002940F04A81099A22F0100223
:103E14000992BCF1000F00F04281084612AA0999E8
:103E2400CDE90337CDE905410190002300920293C7
:103E34003246A1E042F4006239E74FF008094B46EC
:103E4400CAE742F4006242F0200230E712F00203B3
:103E540000F08C810223CDE909481F468846089C5E
:103E6400324623465146D84719F8010F0136002837
:103E7400F6D13B464146099CDDF82880002B3FF4EF
:103E840089ADE5E6A1EB0901BDE6A97842F0C002DF
:103E9400EB1CD8E5044606464AE64FF0100942F00A
:103EA40020024B4698E7012C40F2F180374606F198
:103EB400FF39CDF82880DDF82080A1443A464346F6
:103EC400514620200137D8474F45F7D1DDF82880E7
:103ED4003A4698F800005146089BD8472644DDF836
:103EE400248057E512F4806300F0C1804FF48063AE
:103EF40022F0110010F4007E4AD110F4807C08F105
:103F0400040940F03781410600F1A980020640F11E
:103F1400E081B8F9002082EAE271A1EBE2711FFAB4
:103F240081FED10F0991002A00F05F81734612AA25
:103F34009646DFF8AC830A9403E0BCF1200F2346D5
:103F44000FD0A8FB0314E40804EB8401A3EB4101A4
:103F54000EF1010E3031092B0CF1010C0EF8011C8D
:103F6400EBD80A9C099B0092CDE901C30A2332468F
:103F7400CDE905400497039351465846089BFEF744
:103F8400E5FEC846064605E522F00C0209922AE73A
:103F940008F1070828F00708D8F8042058F808CBD7
:103FA400D10F5CEA020E6CD0002A634602DA5B424F
:103FB40062EB42029146099312AA94464FF0000E16
:103FC400CDE90A18CDE90C470E960F9203E0BEF135
:103FD400200F3B4630D04FF0CC3213EB0901C04FD9
:103FE40041F10001A7FB014626F0030404EB96040B
:103FF400091B5C1A02FB04F63A4669F1000802FB4D
:1040040008660522A4FB077407F001082644A8FBF0
:10401400024864180A2B0CF1010C4FEA570704F10B
:10402400300479F100090EF1010E0CF8014C47EA55
:10403400C6774FEA5609CAD27346DDE90A18DDE9A4
:104044000C470E9E0F9ACDF824E0CDE901310A23E6
:104054000092CDE905403246049703939FE598F812
:10406400002096465DE74FF010094B46B4E622F077
:1040740010003FE711064CBFB8F80010D8F8001044
:10408400C0E6002B40F041819946099394E73246FB
:10409400514698F80000089BD8473E4653E6099AD3
:1040A4000A9412F0200F14BF4FF041084FF061083A
:1040B40012AA9446A8F10A0802E0202871460FD0FB
:1040C400B1FBF3FE03FB1E14092C94BF30344444AB
:1040D40099428CF8004000F101000CF1010CECD283
:1040E4000A9C9CE608F1070828F00708D8F8042081
:1040F40058F8081B0A920A438E467BD1099A22F08B
:1041040010020992BCF1000F74D0002012AA099980
:10411400CDE90020CDE905413246CDE903373CE540
:104124008C4298BF01317FF679AD4FF48063CDE9BD
:1041340009949946A2190B97089F541A32463B4694
:10414400514620200136D847A642F7D1DDE90A4777
:104154004B46DDF8249099F8000000283FF41AAC8F
:10416400611C002B3FF477AE002357E58C42DED868
:10417400013170E6D8F80020D10F002A00F0B28097
:1041840082EAE273A3EBE27312AA9446CDE909141E
:10419400DFF84C8103E0BEF1200F23460FD0A8FBCB
:1041A4000314E40804EB8401A3EB41010CF1010CBA
:1041B4003031092B0EF1010E0CF8011CEBD8DDE9AE
:1041C40009140A230092CDE905403246CDE901E104
:1041D40004970393D0E6692922F0100040F0908000
:1041E40012F480633FF486AE80E6002B3FF49FAE6A
:1041F40012AAB7E6099ACDE90B8412F0200F14BF76
:1042040041216121CDE90D76CDE90F3BCDF844A0E4
:104214000027F0460A9C12AE0DF1480BA1F10A0AE0
:1042240003E0202F80460C4613D021464A46002343
:1042340040460AF035F9D2B2092A94BF30325244CA
:10424400C84574F10004327007F1010706F1010654
:10425400E7D23846DDE90B845A460E9E0D9F0F9B2C
:10426400DDF844A0DDF840B051E7D8F800E0BEF135
:10427400000F0DD122F010020992BCF1000F07D0FB
:1042840012AA0998CDE90337CDE905400191CCE59F
:10429400099A12F0200F14BF4120612012AA9446FB
:1042A4000A92A0F10A0202E02029C6460FD0BEFB02
:1042B400F3F803FB18E0092894BF303080189E45BA
:1042C4008CF8000001F101010CF1010CECD20A9A06
:1042D400D7E7D8F8002082EAE27EAEEBE27E20E661
:1042E400CDCCCCCC002B3FF44FAF12AA69E712F42B
:1042F40080610ED012F0020114D001463746A8E4C2
:104304004FF00A0902464B4666E5002312AA0993B8
:104314009BE612F002037FF49BAC002C7FF407AF02
:10432400FFF738BB002C7FF400AFFFF733BB00BFAF
:104334000EB400B584B00DF1140C5CF8043B0146D6
:104344004FF0FF32CDF800C00448CDF80CC0FFF7A1
:1043540003FB04B05DF804EB03B07047012C0020AC
:104364000CB400B585B00DF1180C5CF8043B0A469A
:10437400CDF800C001460548CDF80CC0FFF7ECFAB3
:1043840005B05DF804EB02B0704700BF012C0020BB
:1043940030B583B0009313460A4601460248FFF73E
:1043A400DBFA03B030BD00BF012C00208C4610B5F1
:1043B40084B000930290134602A94FF0FF320348E1
:1043C400CDF80CC0FFF7C8FA04B010BD992E002038
:1043D40010B5094A84B014684CB1034600914FF0FB
:1043E400FF3203A90548A047012004B010BD00F026
:1043F400EFF9204604B010BDB4510120912E0020E5
:1044040000BEFDE7074A0346106838B10649034475
:104414008B428CBF4FF0FF3013607047034908464E
:104424001160F3E7A04D0120000008201C53022076
:1044340008B5FFF7E5FF00BF38B5074C074D08483E
:10444400FEF788FAFEF790F9AC4204D254F8043B24
:104454009847AC42FAD338BDF43E0120043F012012
:10446400F0F80720036808461146184770B505465A
:104474000846697D82B000294FD0002A25DD0378E3
:1044840014460A2B064622D0012C4FF0000E0DD004
:104494003246012312F801CF1946BCF10A0F03F189
:1044A400010320D09C42F5D1744505DD2B68A4EBB3
:1044B4000E0106EB0E009847311911F8013CA3F1E7
:1044C4000D03B3FA83F35B092B7502B070BD2B7D2A
:1044D400002BD9D102212B6813489847012CEBD02B
:1044E4004FF0010ED4E712F8010C0D28DAD08E45F6
:1044F40006EB0E00A1EB0E0105DACDE900322B68C4
:104504009847DDE90032CDE9003202212B680648E4
:104514009847009B019A9E46C4E711462B6802B057
:10452400BDE87040184700BF4018012070B50B6803
:104534000C46802B054682B005D05A1C23442260C9
:104544001D7102B070BD0E4B186878B900230122AA
:10455400234422601D7102B070BD2268211D0190A8
:10456400FFF784FF019800690028EFD00368002B4F
:10457400F9D0044B1B68002BEFD08342F3D1ECE756
:10458400904D01209C4D01202DE9F04782B09046CA
:104594001C460D460746FDF783FD4FF0FF3C6FF0C8
:1045A40000462E4A821841F10003944576EB03013C
:1045B4003CBF624633462A480BF014F96B1C824612
:1045C40040D00CB3274E284B1C68B4B1B8F1000F8F
:1045D4001CD1DFF89C8001E0246974B12368002BAE
:1045E400FAD0D8F800300BB19C42F5D120462A46C7
:1045F4003946B0472469002CF0D1BAF1000F26D116
:10460400284602B0BDE8F087184EDCE74FF00A09EF
:10461400DFF85C8002E02469002CEED02368002BD4
:10462400F9D0D8F800300BB1A342F4D12A46394668
:104634002046B047012220460DF107018DF807906E
:10464400B047E8E738460AF059FE0546B9E704489A
:104654000BF018F9284602B0BDE8F08740420F007D
:104664009C3E0120D5430020904D0120CD430020E5
:104674009C4D0120084A136823B90AE003F1100293
:104684001B6933B18342F9D129B9186910601961E2
:10469400704701B110607047904D0120074B10B571
:1046A4001C682CB1636823B198472469002CF9D1A4
:1046B40010BD2469002CF5D110BD00BF904D012020
:1046C4002DE9F04182B00646FDF7EAFC4FF0FF32D7
:1046D4006FF00043361841F10007B24273EB070153
:1046E4003CBF16461F46DFF86080154DD8F80040E1
:1046F40014B912E0246984B12B680BB19C42F9D13E
:10470400A368002BF6D0012101A898470028F1DD09
:104714009DF8040002B0BDE8F0810A4B5A6A974242
:1047240009D89B6AB34204D36FF0010002B0BDE81C
:10473400F0819742F8D101200021FDF7BBFCD5E7B9
:104744009C4D012000000B40904D0120F0B583B03A
:1047540006468DF80700FDF7A3FC4FF0FF356FF018
:104764000044174A821841F10003954274EB030197
:104774003CBF23462A4613480BF034F8124B074635
:104784001C689CB1114D01E024697CB12368002BA5
:10479400FAD02B680BB19C42F6D1204601220DF1D0
:1047A4000701FFF763FE2469002CEFD117B93046E7
:1047B40003B0F0BD03480BF065F8304603B0F0BD1C
:1047C40040420F009C3E0120904D01209C4D012051
:1047D40038B504460AF092FD012305461A462046E0
:1047E4002946FFF7D1FE084B1C682CB163682BB136
:1047F40098472469002CF9D1284638BD2469002C37
:10480400F4D1284638BD00BF904D01202DE9F04178
:10481400A2B00E460546FDF743FC4FF0FF3C6FF097
:104824000044254A821841F10003944574EB0301C6
:104834003CBF2346624621480AF0D4FF0024334695
:1048440007462A461E4801A90194FFF7AFFD1D4EF5
:10485400019B80463468BBB1002C2AD01A4D01E07C
:10486400246974B12368002BFAD02B680BB1A342DE
:10487400F6D12046019A02A9FFF7F8FD2469002C1D
:10488400F0D12346346801932CB1636843B198474F
:104894002469002CF9D12FB9404622B0BDE8F0813B
:1048A4002469F1E705480AF0EDFF404622B0BDE86F
:1048B400F0810194EFE700BF40420F009C3E0120CD
:1048C40095440020904D01209C4D01200FB400B56B
:1048D40083B004A951F8040B0191FFF797FF03B0CB
:1048E4005DF804EB04B07047704700BF0022014B31
:1048F4001A707047145302204B79FF2B0BD188791F
:1049040048B9CB79012B07D1082A05D9034B8A78FA
:1049140009201A7070470020704700BF145302200A
:1049240001207047012901D00120704708B5104BC0
:1049340091881B78994201D0002008BD5378012B3F
:1049440008D0022BF8D1002164220846FDF730FE7E
:10495400012008BD5188CB0548BF480AC1F3402255
:1049640058BF4FF0FF3001F07F01FDF7B9FE00BFE3
:1049740014530220004870470C190120012907D163
:104984005378012B02D19388072B03D00020704762
:10499400012070471146A623014A01F071BA00BFF5
:1049A400641801200346012201481A70704700BFB1
:1049B4004418012008B50B68B3F5966F00D008BD04
:1049C40000224FF0FF301146FDF78AFE024A034BE6
:1049D40010601960704700BF2C4D0120304D01203C
:1049E400184B70B51A68002A28D0EFF3108172B6FC
:1049F400D2E8CF4F0120002CFAD1C2E8440F002C9A
:104A0400F6D1BFF35F8F00220F4C186859602270F3
:104A1400C0E88F2F81F31088002400250B4E3078D6
:104A2400FCF74AFC20B9002400252046294670BD25
:104A34003078FCF75DFC2046294670BD4FF47A744B
:104A44000025EBE7C0510120165302201553022024
:104A5400014B1878FCF74CBC1553022038B50446BA
:104A640000200D4601F038FBA8B3002001F04AFBFA
:104A740088B3FDF715FB4FF0FF3E6FF0004C174A6B
:104A8400821841F1000396457CEB03013CBF72465A
:104A9400634613480AF0A6FEE8B1002001F01CFBAF
:104AA40058B901464FF0FF3000F016FD6FF00204D4
:104AB4000B480AF0E7FE204638BD002001F022FB37
:104AC4000028EED021462A46002001F027FB0446A8
:104AD4000028EDD1EAE76FF00204ECE740420F0052
:104AE400C452022008B5FDF7DBFA4FF0FF3E6FF029
:104AF400004C0F4A821841F1000396457CEB0301F8
:104B04003CBF724663460B480AF06CFE70B14FF02E
:104B1400FF30002100F0E0FC002001F045FB0028FC
:104B2400F5D1BDE8084003480AF0ACBE08BD00BF9B
:104B340040420F00C45202202DE9F04107460E46C0
:104B4400FDF7AEFA4FF0FF356FF00044324A821899
:104B540041F10003954274EB03013CBF2A4623460E
:104B64002E480AF03FFE08B9BDE8F081002001F0AC
:104B7400B3FA002845D0002E3EDD0025DFF8A480DE
:104B840012E02246002001F059FB002105444FF0B9
:104B9400FF3000F0A1FC002001F006FBFDF780FAD5
:104BA400C8E90001AE4227DD002001F067FB741B59
:104BB4008442A8BF04467919002CE2D121464FF063
:104BC400FF3000F089FC204601F0EEFA204601F0A7
:104BD40083FA88B1204601F051FB0028E2D1FDF7A9
:104BE4005FFA0F4AD8F800309B18D8F8042042F135
:104BF400000283428A41D5D20848BDE8F0410AF058
:104C040041BE0020BDE8F0410021064BC3E900018C
:104C140002480AF037BE00BF40420F00C4520220CF
:104C240020A107001843012010B5002184B03248A8
:104C34000AF07AFD28BB314B1A6802B3EFF31081F6
:104C440072B6D2E8CFEF5FF0010CBEF1000FF8D1DD
:104C5400C2E84ECFBEF1000FF3D1BFF35F8FDFF890
:104C6400A8C0D3F800E09CF800205960D3B2012218
:104C74008CF80020CEE88F0F81F31088CBB104B0FC
:104C840010BD00214FF0FF3000F026FC002001F0A1
:104C940039FA044618480AF0F5FD002CEFD0184BF9
:104CA4001B68002BEBD0174A106804B0BDE8104015
:104CB4001847FCF765FF0446FDF7F2F94FF0FF3E95
:104CC4006FF0004C10F57A7241F1000396457CEBCD
:104CD400030138BF63464FF000014FF0010C38BFA9
:104CE4007246DFF828E02046CDE9011CCDF800E04B
:104CF400FCF74AFF04B010BDC4520220C051012089
:104D04002C4D0120304D012016530220494900202A
:104D14004FF0504330B585B01C68FCF731FFFDF708
:104D24004DF8A04202D0002005B030BD2B4B1B78BB
:104D340001F08AFD2A480368002B4BD00120FCF7C0
:104D4400A3FC0346274C2849C0B22370FCF7ECFAB5
:104D540020780121FCF79AFA0E20FCF7D5FA60BB03
:104D6400224B6FF00044C3E90000FCF709FF05463D
:104D7400FDF796F94FF0FF3C10F57A7241F100030C
:104D8400944574EB030138BF23464FF000014FF004
:104D9400010438BF6246DFF860C02846CDE901143B
:104DA400CDF800C0FCF7F0FE0028BCDB0121104860
:104DB400FFF760FC012005B030BD0120FCF720FAAC
:104DC40001460A48FCF7BEFC00220E200949FCF704
:104DD400E3FAEBE7FCF79AFCB0E700BF200200100F
:104DE400C452022015530220914B0020C0510120CF
:104DF400B0380120B94900204949002000487047D3
:104E0400A8190120004870475419012000B51C4A14
:104E14000346117883B031B363B940F209424FF4C9
:104E24004173DFF860C0ACF802201648ACF80030DB
:104E340003B000BD052B20D8134ADFF848C052F850
:104E4400231060460023013903E0132B20F8022FBE
:104E540010D011F8012F0133DBB2002AF5D15B0029
:104E640043F44073E1E701901121104600F024F867
:104E7400019BD1E74FF44A73D7E70020D8E700BF7E
:104E8400F8520220684D01203C19012000B545F27A
:104E940047308BB0FDF70AFC01220346092101A823
:104EA4009847DDE90332034912BA1BBAC1E900236A
:104EB4000BB000BDEC510120012900F0BB80614A18
:104EC400013913784FEA231CBCF1090FCCBF0CF154
:104ED400370C0CF1300C012980F800C000F0AD80D3
:104EE40003F00F03092B8CBF37333033022943708F
:104EF40000F0A38053784FEA231CBCF1090FCCBF08
:104F04000CF1370C0CF1300C032980F802C000F0CE
:104F1400948003F00F03092B8CBF373330330429FB
:104F2400C37000F08A8093784FEA231CBCF1090F08
:104F3400CCBF0CF1370C0CF1300C052980F804C0FF
:104F44007BD003F00F03092B8CBF37333033062992
:104F5400437172D0D3784FEA231CBCF1090FCCBF44
:104F64000CF1370C0CF1300C072980F806C064D022
:104F740003F00F03092B8CBF373330330829C37177
:104F84005BD013794FEA231CBCF1090FCCBF0CF1A1
:104F9400370C0CF1300C092980F808C04DD003F00F
:104FA4000F03092B8CBF373330330A29437244D0A3
:104FB40053794FEA231CBCF1090FCCBF0CF1370C19
:104FC4000CF1300C0B2980F80AC036D003F00F0323
:104FD400092B8CBF373330330C29C3722DD093790E
:104FE4004FEA231CBCF1090FCCBF0CF1370C0CF1B8
:104FF400300C0D2980F80CC01FD003F00F03092BCF
:105004008CBF373330330E29437316D0D3791A113A
:10501400092ACCBF373230320F2982730DD003F006
:105024000F03092B94BF303337331029C37318BFD0
:10503400103002D00023037070470023084403702B
:10504400704700BFEC51012038B500F02FF90C2354
:105054001A4CFF22A3670E201949FCF79DF9402240
:105064000021184809F00CFF01258020154A00236F
:105074005084557010464022134902830287134A14
:1050840081604360C2F88430C2F8803080F82130F7
:1050940080F83B3043620E4BC360C362803B836243
:1050A4000AF00EFC4FF000504FF4803209490A4BCD
:1050B4002564E064C4F89010DA6438BD000011502F
:1050C4001DF90020A44D0120840010500000105050
:1050D4000001105010D001000020115001210E20B9
:1050E400FCF7D4B800220248114600F0FFB800BF14
:1050F400C44D0120044B197021B14FF40032034B0D
:10510400C3F89020704700BF1053022000201150B4
:105114000B785B0600D070474B78052BFBD14B888E
:10512400014ADBB21360F6E7000011502DE9F041AB
:105134004FF0000E91F802C0CE788B880CF07F01FE
:1051440035484D0005EBDC1200EB4212C6F30107B3
:105154004FEADC14D776C3F30A0384F0010782F81C
:1051640002C082F803E01383577006F00308CA00F4
:10517400A4BB2A4F043200EB811CD619CCF808607A
:1051840042F807E099B3264A02EBC102CCF80420A6
:10519400244F3F333A689B09B8F1020F14BF9B01B7
:1051A400DB0113443B6083F0A043291983F480138B
:1051B40000EB411182F0A047B3F5805FCA6087F429
:1051C400801724D8254400EB4510436847EA8862D9
:1051D40042F0004201201A60BDE8F0810F4F00EB5D
:1051E400811C3A44CCF8282047F831E039B90E4AFA
:1051F40000EB4410C26041600120BDE8F081C900A9
:1052040001F1A04101F58011CCF82410C0E7FDF7AD
:10521400A5FA0148D6E700BFA44D01208000105034
:1052240004001050BC510120000110500AF048BB8A
:1052340008B59646DFF81CC001F07F02C80900EBF0
:1052440042000CEB40101A46714600F04FF8012062
:1052540008BD00BFA44D012011F07F0205D1002933
:105264000CBF02200120064B9866C909054B01EBCF
:10527400420003EB40104FF4006200210AF03EBFED
:1052840000201150A44D012011F07F0300D170477C
:10529400002205485B0003EBD11300EB43106FF4CD
:1052A4000061C2700AF02ABFA44D01204FF0805261
:1052B40009480A4908B50A4B02600A609968C9435B
:1052C40011F08051FAD14FF48052064809F0D8FD0C
:1052D4000922054B5A6708BD0020024000300240F5
:1052E40000000240000010500000115000234FF055
:1052F400010C10B5016180F81AC08282C382044691
:105304000AF0CEFE20B14FF40032074BC3F89020D0
:1053140020460AF0D9FE10B10123237710BD2046A0
:10532400BDE810400AF00EBF002011502DE9F041F5
:1053340000241C4D064623462A78DFF878801A4F4D
:105344000DE03B6813EB441323D0DB6830469847E9
:105354002A780134E4B2511CA142234606DBA2425E
:10536400A3EB0203EDD808EB4313EEE7542200212C
:105374000E4809F085FD4FF0FF330C4C2022C4E9A0
:105384000133C4E90333FF21BDE8F041084809F0C3
:1053940077BD4FF0E023D3F8F03DDB0700D500BE26
:1053A400BDE8F0810F530220B448012038490120A0
:1053B4004C490120BC190120704700BF704700BF51
:1053C4000020704700207047704700BF704700BF3F
:1053D400704700BF704700BF024B5878003818BFB1
:1053E4000120704738490120024B1878C0F380002F
:1053F400704700BF384901202DE9F8432A4E33781D
:10540400FF2B02D00120BDE8F883002154228146FD
:10541400264809F035FD0022254C264B20461A70FB
:10542400FCF774F9244B25481C60254CFCF77CF9E7
:10543400204601F0D9FD234A234B146023B12348AD
:10544400FFF7B0FA224B18600024204D23462A7837
:10545400DFF880801E4F0DE03B6813EB441311D03E
:105464005B687BB198472A780134E4B2511CA142AD
:10547400234610DBA242EFD89B1A08EB43135B6868
:10548400002BEFD14FF0E023D3F8F03DDB0700D53C
:1054940000BE0020B7E7484686F80090FFF7D4FD29
:1054A4004846FFF71BFEADE7E438012038490120E8
:1054B400F0480120115302208C490120DC380120DE
:1054C400C8380120904901200D4900200F530220C3
:1054D400B4480120BC190120AB4B1B78FF2B00F012
:1054E40019812DE9F04FA94CA94DDFF8B882A94FD5
:1054F4008BB026687369EFF3108272B6D3E8CF0FCE
:1055040001210028FAD1C3E8401F0028F6D1BFF3D7
:105514005F8FB261304607A901F0ACFB00237269CA
:10552400C2E88F3FB36983F31088002800F0CA8073
:105534009DF81D30013B072B00F29B83DFE803F04D
:10554400A5AF939B8C350A04089B002BD1D00998F6
:105554009847CEE79DF8201001F07F0605EB460042
:1055640000EBD11090F8343023F0010380F834308C
:1055740090F8343023F0040380F83430002E00F027
:10558400A480037D98F80020934280F09180824AA1
:10559400126812EB431300F08E809E699DF821205F
:1055A400099B9DF81C00B047A3E73B78002B00F053
:1055B40082803B78013B3B703B7803F0FF00002B7B
:1055C40097D1DFF8CCA19DF81CB09AF8003043F0D5
:1055D40001038AF800309AF8343060F300038AF843
:1055E40034309AF8343060F382038AF834309AF80D
:1055F400353060F300038AF835309AF8353060F3BB
:1056040082038AF8353000F09FFC9DF8203003F0C7
:105614006002602A6CD0402A7DD003F01F03012B66
:1056240000F0C280022B00F08280002B60D1202A7F
:1056340000F0F981002A5BD19DF82130092B57D85D
:10564400DFE813F0BD01AD015600CF0156009E0105
:10565400750156006901F8002B78D9077FF549AF29
:10566400FFF7B8FE45E7EB78DA077FF542AF089815
:10567400FFF7A4FE3DE72B78D8077FF53AAF2878EB
:10568400C0F3C000FFF7A4FE33E79DF81C00FFF74A
:105694004DFE00F04FFC9DF82030AB7029E79DF8DB
:1056A4001C00FFF743FE00F045FCFFF78FFE20E7E8
:1056B400501C984211DA4FF0E023D3F8F03DDC0798
:1056C40000D500BE0BB0BDE8F08F099B9DF82120EA
:1056D4009DF81C0000F04CFC0BE79B1A2F4A02EBD0
:1056E40043135AE7FFF78EFB0246002840F09281ED
:1056F4004FF0E023D3F8F03DDE0700D500BE9DF85F
:105704001C000021FFF7A8FD80219DF81C00FFF775
:10571400A3FDEEE67047224800F016FC012158462E
:1057240008AAFFF72BF900287FF4E3AEE7E79DF81A
:10573400241011F0700FDBD11A4801F07F0390F8A8
:1057440000C00AEB430000EBD110007D60455DD33F
:105754000CF1010E8645C0F27881A0EB0C00DFF855
:105764003CC00CEB40100090002A00F07281009EB7
:10577400706900F0E9FB01215846736908AA98474B
:1057840000287FF4B6AEBAE7E4380120904901203E
:105794003849012011530220B4480120BC190120CA
:1057A400E54800200F5302209DF824300F2BA6D883
:1057B400B64A53441B791278934235D3511C99420B
:1057C4009DDBB34E9B1A06EB4316706900F0BCFBDD
:1057D40001215846736908AA984700287FF489AEC6
:1057E4009DF8203013F0600689D19DF821300A3BE2
:1057F400012B84D800F0A8FB9DF821300A2B00F07F
:105804001182584608A900F01FFB72E6DFF884C233
:10581400DCF800C00CEB40100090002A00F0198165
:1058240000283FF46CAFA2E79A4A166816EB4316B9
:10583400CBD164E79AF801209DF82230934200F01E
:1058440062819AF80120002A40F0D6818AF801305A
:10585400002B00F05681013BD8B2FFF7D3FA0028A1
:1058640000F072814378022B40F06E81C2799AF87D
:105874000010C2F340131B01C2F3801221F0300167
:1058840043EA42130B438AF80030438800F10901CC
:10589400C3180293029B8B4240F2C1814B780B2BBD
:1058A40000F0CA810120042B40F04E810022029BAB
:1058B40000925B1A1FFA83F9744B01921B780390D0
:1058C4001FE0744B1B6813EB421300F03D814A4602
:1058D4001E69584605910493B0470246009B082A66
:1058E400059903F1010003D99145049B80F01081CF
:1058F400664BC0B21B7800905A1C9042019000F392
:105904002381009A01989342A0EB0303D9D8604AFB
:1059140002EB4313DBE79AF8013058468DF81A304E
:105924000DF11A02012308A900F0AAFAE1E5BDF875
:105934002200030A5A1EC0B20E2A3FF6E0AE01A1AD
:1059440051F822F0E35A00206B5900201F5B00201D
:105954006756002067560020015B00206B59002029
:1059640067560020675600206756002067560020BF
:10597400675600206756002067560020D55A00203D
:1059840008A800F0E7FA58469DF82210FFF7AAFB92
:105994009AF8003043F002038AF80030A9E5BDF814
:1059A4002230012B7FF4ABAE9AF80030584623F036
:1059B400080308A98AF8003000F046FA99E5584629
:1059C4009AF800309A0802F00202C3F3401313431A
:1059D400ADF81A300DF11A02022308A900F050FAAA
:1059E40087E5BDF82230012B7FF489AE9AF80030A8
:1059F400584643F0080308A98AF8003000F024FA56
:105A040077E5022B3FF46EAEFFF7DCFC024600287C
:105A14003FF475AE5846538808A900F031FA0028BF
:105A24007FF467AD6BE69DF824300F2B3FF667AE2D
:105A3400164A53441B79127893421ED2154A1668AB
:105A440016EB43167FF494AE59E6002A7FF457AE62
:105A540000929DF821C00CF0FD02012A1CD0BCF17B
:105A6400000F7FF445AE0AEB430303EBD11393F825
:105A740034305846C3F34003AAE7511C9942FFF659
:105A84003EAE034E9B1A06EB431671E60F530220FB
:105A9400BC190120B4480120BDF82220DAB97948A4
:105AA400BCF1010F007800F08E80CDE90113FFF7FF
:105AB400D3FB029B01990AEB430303EBD11393F845
:105AC400342042F0020283F8342093F8342042F068
