:020000041000EA
:10000000002008205D010010130100104915012097
:100010001101001011010010110100101101001058
:100020001101001011010010110100101701001042
:100030001101001011010010190100101B01001026
:100040001D0100101D0100101D0100101D010010F8
:100050001D0100101D0100101D0100101D010010E8
:100060001D0100101D0100101D0100101D010010D8
:100070001D0100101D0100101D0100101D010010C8
:100080001D0100101D0100101D0100101D010010B8
:100090001D0100101D0100101D0100101D010010A8
:1000A0001D0100101D0100101D0100101D01001098
:1000B0001D0100101D0100101D0100101D01001088
:1000C0001D0100101D0100101D0100101D01001078
:1000D0001D0100101D0100101D0100101D01001068
:1000E0001D0100101D0100101D0100101D01001058
:1000F0001D0100101D0100101D0100101D01001048
:100100001D0100101D0100101D0100101D01001037
:1001100000BE00BE00BE00BE00BE00BEEFF3058004
:10012000103800BEF2EB88710002001024020010AB
:10013000A801001090A31AE7D3DEFFFF42012110AF
:10014000FF01000030CC0100793512AB4FF0000008
:100150002349086006C881F3088810474FF05040D3
:10016000006810B14FF00000F2E70FA40ECC002998
:1001700002D000F015F8F9E71A491B4A002000E008
:1001800001C19142FCD1002080F30A8817498847B9
:10019000174988471749884700BEFDE701C901C2D2
:1001A0009A42FBD3704700BF240200108801002050
:1001B000747701201078011078770120D0CC0120CD
:1001C00068CD0110000008200000082068CD011053
:1001D00000100820001008200000000070470000F8
:1001E00008ED00E0D0CC012000FE0220B550002038
:0801F0003108002071500020CD
:0801F8005C1B01100100000076
:10020000609F01206C9F0120789F0120849F012026
:10021000909F01209C9F0120A89F0120B49F012056
:0402200000A1012018
:10022400F8B500BF0348044B834202D0034B03B12B
:1002340018477047D0CC0120D0CC0120000000002A
:10024400064B0749C91A891048BF0131491003D028
:10025400044B0BB101481847704700BFD0CC0120B4
:10026400D0CC01200000000010B5064C237843B91F
:10027400FFF7D8FF044B13B10448AFF30080012308
:10028400237010BD08E001200000000074770120F5
:1002940008B5044B1BB104490448AFF30080BDE822
:1002A4000840CDE7000000000CE001207477012035
:1002B400704700BF002001220249034B08601A6006
:1002C400704700BF94FD022098FD02202621024BB6
:1002D400024A034805F084B99C8A0120A88A0120B7
:1002E400B48A0120024B0348196805F079B900BFAC
:1002F4004CEC0120D88A012038B54FF400440D4D50
:10030400A3060CD0295D0C48013405F069F9B4F555
:10031400014FF5D10A20BDE8384005F0A1B82146C7
:10032400064805F05DF9295D034805F059F90134E3
:10033400E6E700BF64EC0120E48A0120DC8A0120A6
:1003440038B50A2005F08CF8094C04F59C756268F0
:1003540013782A2B03D00748217805F041F90C348F
:10036400AC42F4D10448BDE8384005F039B900BFC7
:10037400F0BF0120EC8A0120F88A01202DE9F04128
:10038400114882B005F0AEF8104A114B11681148BB
:100394001A6805F025F90024DFF848800E4F0F4E47
:1003A40038F814203B5D355D21460D48009592B226
:1003B400013405F015F9202CF2D10A2002B0BDE871
:1003C400F04105F04DB800BF148B012094FD0220CC
:1003D40098FD02201C8B01209CFD0220BCFD022004
:1003E400408B012054FD0220002108B5084602F08C
:1003F40049FE00BF10B50A4805F0F2F808244FF092
:10040400010343EC4040322002F026FA4FF000038F
:1004140043EC4040BDE81040024805F0E1B800BF9D
:10042400548B0120648B01202DE9F041274E90B0BC
:1004340033680A205A4292B29BB258BF5342336087
:1004440005F00EF8002334688DF8083004F50073C5
:100454009C4231D2DFF88C801D4F0DE02A4668465D
:1004640004F0AEFD694602A812F08AFD3368013437
:1004740003F50073A3421FD914F00F0511D018F827
:1004840004501448EDB2294605F0AAF87B5D1249E0
:1004940013F0970FE2D12E23694602A8ADF800307D
:1004A400E2E702A90D4805F09BF821460C488DF8B7
:1004B400085005F095F8E2E70A2004F0D1FF33680C
:1004C40003F50073336010B0BDE8F08120FC022016
:1004D40079BC0120E48A01207C8B01206C8B0120F3
:1004E400748B012064EC012008B5234800F05AFC09
:1004F400224800F073FE214800F0E6FD00221F4868
:10050400114600F059FC1E491C4800F0C3FC0822A7
:1005140000211A4800F050FC1A49184800F0BAFCAF
:10052400194805F05DF80CF0F9FF00F0BDFE00F08D
:10053400D9FE15220021114800F03EFC134B102275
:10054400196861B100210D4800F036FC0B481049D0
:1005540000F0A0FCBDE808400E4805F041B807488B
:1005640000F02AFC05480C4900F094FCBDE8084062
:100574000A4805F035B800BF4CC1012044C1012030
:10058400808B0120908B0120A08B012014FD022080
:10059400C08B0120CC8B0120D88B0120E88B01205B
:1005A4002DE9F84F4FF0FF30002101F075FB4FF0BB
:1005B400570B4FF05043FF27DFF8C0C02C4C2D4899
:1005C400DFF8BCA0DFF8BC902B4D5A68996816057B
:1005D4002CD5D604F9D411F4704FF6D09F639968E2
:1005E4008EB21CF80620D2B29A6182F0FF021A621F
:1005F4005A68D204FCD51F642268002AE5D0026838
:100604002AF8121001681CF8062009F80120026873
:10061400511C01604FF05201A9540268202AD4D120
:10062400002222605A6899681605D2D45A681105C6
:10063400FCD599681FFA81FE0CF80E202668002E5E
:10064400C7D0D0F800802AF81810D0F800801CF821
:100654000E6009F80860066806F1010EC0F800E0B3
:1006640005F806B00668202E04BF00262660B0E711
:1006740098FD022094FD02209CFD022064EC0120E0
:1006840054FD0220BCFD022010B50121114804F0E4
:10069400A7FF114BD3F800E0BEF1000F04D0BDE872
:1006A40010400E4804F09CBF0D4BDFF83CC01B68A3
:1006B4001C46186859689A68DB68ACE80F00206922
:1006C4006169ACE803007146BDE81040054804F0D8
:1006D40087BF00BFF88B012020FC0220148C01206E
:1006E40028C10120048C0120646C022010B5194833
:1006F40004F076FF0023184C23604FF47A7004F062
:1007040069FE831C21D0392808DC2F2820DC1B2813
:10071400F3D8124B0341DA07EFD410BDA0F1610303
:10072400052BEAD8573823680D4900EB03102060E5
:100734000C4804F055FF21680B4804F051FF4FF4B6
:100744007A7004F047FE831CDDD104F031FED4E757
:100754003038E8E72C8C012020FC0220FFDBFFF777
:1007640024FD0220588C0120708C012000B52548FE
:1007740083B004F0B7FE24480CF072FE10B30346B5
:1007840001222149483001930BF0F4FA019B28BB64
:10079400012283F8B0221D4810F0FEFF1A480CF025
:1007A4005FFEA0B100220190174910460BF0E2FA57
:1007B400019BE0B9197E83F8B00241F0010119767A
:1007C40003B000BD1049124804F00AFFE3E70E49E4
:1007D4000F4803B05DF804EB04F002BF019010F081
:1007E400CFFF019A01460B4804F0FAFED3E70190CB
:1007F40010F0C6FF0146019A074803B05DF804EB08
:1008040004F0EEBE888C01209C8C0120D88C012041
:10081400A08C0120C08C0120E08C012070B505461D
:100824000E461B48294604F0DBFE00F03DFD194846
:1008340000F060FD38B32946174804F0C1FB284690
:10084400164911F025F80446C8B1154D354400E0A9
:1008540070B1012223461146284611F0A9F8D4E9C3
:100864000413E26BA66B01359A4208BF8E42EFD1A6
:10087400204611F07DF800F035FD002070BD2946BA
:10088400084804F0ADFE00F02DFD002070BD00BF4F
:10089400208D0120D88C0120FC8C0120809901201E
:1008A40064EC01200C8D01204FF400410148FFF756
:1008B400B5BF00BF2C8D01204FF47E410148FFF7E6
:1008C400ADBF00BF3C8D012080B5002084B001F095
:1008D40083F8002444EC4440012001F07DF8012514
:1008E40044EC4450022001F077F8022344EC4430F5
:1008F400032001F071F8032344EC4430042001F098
:100904006BF8042344EC4430052001F065F805231A
:1009140044EC4430062001F05FF8062344EC4430F4
:10092400072001F059F8072344EC4430082001F073
:1009340053F84FF0080845EC4480092001F04CF8C6
:10094400092745EC44700A2001F046F80A2645ECD4
:1009540044600B2001F040F80B2344EC44300C209D
:1009640001F03AF80C2344EC44300D2001F034F843
:100974000D2344EC44300E2001F02EF80E2344ECF9
:1009840044300F2001F028F80F2344EC44301B209E
:1009940001F022F81B2344EC44301C2001F01CF825
:1009A4001C2344EC44301D2001F016F81D2344ECB4
:1009B4004430202001F010F8202344EC443021205E
:1009C40001F00AF8212344EC4430222001F004F819
:1009D400222344EC4430232000F0FEFF232344EC84
:1009E4004430242000F0F8FF242344EC4430252034
:1009F40000F0F2FF252344EC4430262000F0ECFF05
:100A0400262544EC4450272000F0E6FF272344EC3D
:100A14004430282000F0E0FF282344EC443029200F
:100A240000F0DAFF292344EC44302A2000F0D4FFFC
:100A34002A2344EC44302B2000F0CEFF2B2344EC3B
:100A440044302C2000F0C8FF2C2344EC44302D20EB
:100A540000F0C2FF2D2344EC44302E2000F0BCFFF4
:100A64002E2344EC44302F2000F0B6FF2F2344EC17
:100A7400443044EC408044EC407044EC40605948BD
:100A840003AB0DEB080201A902F06EF918B9554940
:100A9400554800F0E7FFDDE90212019802F0A0F8E2
:100AA40004F0C0FF514807F085FB304604F0D8FC41
:100AB4004F4804F095FD4F4804F092FD4C4804F073
:100AC4008FFD304604F0CCFC4B4B29464B4A4C4836
:100AD40004F086FD304604F0C3FC4A4800F062F995
:100AE400494800F07BFB494804F07AFD0CF016FD00
:100AF40000F0DAFB00F0F6FB15222146424800F034
:100B04005BF9434B1B68002B60D13F48414900F01F
:100B1400C1F9414804F064FD00F0C6FB3F4800F011
:100B2400E9FB3E49002859D13D4804F059FD3D49AF
:100B34003D4804F055FD00F0D5FB4FF47A7001F008
:100B44008BFE314800F0C0FA002205212E4800F047
:100B540033F936492C4800F09DF9102205212A4822
:100B640000F02AF93249284800F094F9314B324810
:100B7400324C334A03604FF47E41324823601360A1
:100B8400FFF74CFE304E314D314C4FF47A7004F087
:100B940021FC831CF9D000232B4A04E001331A2BD7
:100BA40002F10C02F1D011788842F7D103EB430330
:100BB40006EB83039B68286098472649264804F07F
:100BC4000FFD2168254804F00BFDDEE724490E489B
:100BD40000F060F9234804F003FD9DE7224804F087
:100BE400FFFCA8E7B01E04000C8E012009050020BC
:100BF400488D0120988D01209C8A0120A88A01201B
:100C0400E88D01204CC1012044C10120A08B0120AA
:100C140014FD0220D88B0120E88B0120D88C012000
:100C2400408E01204CFC0220608E0120808B01202C
:100C3400908B0120109F012050EC012000E801203E
:100C440050FD02203C8D0120F0BF01204CEC01201E
:100C540020FC022024FD0220588C0120708C0120ED
:100C6400C08B0120CC8B0120648E01202DE9F04142
:100C740008274FF001084FF0000506461AE048EC3B
:100C8400443045EC40300120002101F079FD1F245F
:100C940045EC44400120002101F072FD48EC444041
:100CA40045EC40400120002101F06AFD013F4FEA7C
:100CB400460606D032064FF01E03E0D545EC44301C
:100CC400E1E71E2345EC443045EC4440012000217B
:100CD40001F056FD64204FF0504201E0013813D07A
:100CE40053685B00FAD401241F234FF0010242EC45
:100CF40044304FF0000242EC40300120002101F06A
:100D04003FFD2046BDE8F0810446EDE7F0B583B031
:100D140007461E234FF001060C46019246EC443070
:100D24004FF0000545EC40300120002101F028FD82
:100D34001F2346EC443045EC40300120002101F0F3
:100D44001FFD3879400000F0FE00FFF78FFF019A85
:100D5400E2B1E51C8020FFF789FF14F8010BFFF7CF
:100D640085FFAC42F6D11F234FF0000444EC44301D
:100D74000120002101F004FD1E2344EC4430012035
:100D8400002103B0BDE8F04001F0FABC4020FFF7B9
:100D94006DFFE51C14F8010BFFF768FFAC42F9D1B5
:100DA400E1E700BF08B51E2000F016FEBDE80840CC
:100DB4001F2000F011BE00BF70B5344B82B0344D1B
:100DC4001A604B4203F07F03296001F07F0158BF92
:100DD4005942534203F03F0302F03F0258BF5A42C4
:100DE4003629C8BF0131002A0446B8BF0732484239
:100DF40000F00F0001F00F0358BF43420029B8BFB1
:100E04000F31D2100911503A10318DF805308DF898
:100E140004208DF806101E234FF0010646EC4430E2
:100E24004FF0000545EC40300120002101F0A8FC02
:100E34001F2346EC443045EC40300120002101F0F2
:100E44009FFC20790DF10705400000F0FE00FFF73C
:100E54000DFF01AC8020FFF709FF14F8010BFFF729
:100E640005FFAC42F6D11F234FF0000444EC44309C
:100E74000120002101F084FC1E2344EC44300120B5
:100E8400002102B0BDE8704001F07ABC58EC0120AA
:100E940054EC01202DE9F04F074687B008460D4673
:100EA40012F01CFB002800F098804FF0000B8046E5
:100EB4005E46CDF804B0CDF808B02B78262B00F0B0
:100EC400E5807D4A203B03EB830302EB030905F134
:100ED400010A1E214FF0010B4BEC44104FF00004AB
:100EE40044EC40100120002101F04AFC1F214BEC8E
:100EF400441044EC40100021012001F041FC3879F9
:100F040009F10504400000F0FE00FFF7AFFE4020A9
:100F1400FFF7ACFE19F8010BFFF7A8FEA145F9D1C4
:100F24001F244FF0000343EC44400120002101F052
:100F340027FC4FF01E094FF0000343EC44900120BE
:100F4400002101F01DFC6A782E2A5ED0019B13B1AA
:100F5400029B032B44D000241E234FF00105ADF85F
:100F640014408DF8164045EC443044EC40300120E8
:100F7400002101F005FC1F2345EC443044EC4030D3
:100F84000021012001F0FCFB387905AC400000F0A1
:100F9400FE00FFF76BFE4020FFF768FE0DF117051A
:100FA40014F8010BFFF762FEAC42F9D11F234FF096
:100FB400000444EC44300120002101F0E1FB1E2335
:100FC40044EC44300120002101F0DAFB5546019B3A
:100FD400BBB901364645FFF670AF07B0BDE8F08FE8
:100FE4004FF000030022384605A9ADF814308DF8FF
:100FF4001630FFF78BFE0022384605A9FFF786FE60
:101004005546029B01330293E3E72C4A05924FF0C5
:10101400010242EC44904FF00003039243EC4090F1
:101024000120002101F0ACFB039A42EC44404FF054
:10103400000343EC40400021012001F0A1FB38797A
:1010440005AC400000F0FE00FFF710FE4020FFF763
:101054000DFE14F8010BFFF709FE06AB9C42F8D114
:101064001F234FF0000444EC44300120002101F020
:1010740087FB1E2344EC44300120002101F080FB57
:10108400AB78B3B1023508F1FF38A0E70C4B384612
:1010940019680C4B02391A6801EBC601FFF78CFE84
:1010A4000123002208F1FF38CDE9013201352B7804
:1010B40007E75546E7E700BF109D01200018180018
:1010C40054EC012058EC01202DE9F04F4FF0000BB7
:1010D4004FF01E094FF0010A4FF01F085F4685B01C
:1010E4003B4E01900DF10F0500224FEAEB03503BFC
:1010F4008DF80C30374B4FF000041A60364B8DF8E6
:101104000D40C3F800B010238DF80E304AEC449023
:1011140044EC40900120002101F032FB4AEC448071
:1011240044EC40800120002101F02AFB019B03AC28
:101134001879400000F0FE00FFF798FD8020FFF7CB
:1011440095FD14F8010BFFF791FDAC42F6D147EC85
:1011540044800120002101F013FB47EC449001205E
:10116400002101F00DFB4AEC449047EC4090012033
:10117400002101F005FB4AEC448047EC408000214B
:10118400012001F0FDFA019B80241879400000F051
:10119400FE00FFF76BFD4020FFF768FD3078FFF796
:1011A40065FD013CFAD147EC44800120002101F0A7
:1011B400E7FA47EC4490012000210BF1080B01F001
:1011C400DFFABBF1400F8FD105B0BDE8F08F00BF4F
:1011D400FCFD022054EC012058EC01202DE9F041E3
:1011E40080461E264FF0010747EC44601F2547EC5C
:1011F40044504FF0000444EC406044EC405047EC51
:10120400446044EC40600120002101F0B9FA47EC4D
:10121400445044EC40500120002101F0B1FA44EC68
:1012240044500120002101F0ABFA44EC4460012059
:10123400002101F0A5FA47EC446044EC4060012031
:10124400002101F09DFA47EC445044EC4050012049
:10125400002101F095FA98F80400124C400000F0C7
:10126400FE00FFF703FDA5198020FFF7FFFC14F82B
:10127400010BFFF7FBFCAC42F6D11F234FF0000437
:1012840044EC44300120002101F07AFA1E2344EC9E
:1012940044300120002101F073FA4046BDE8F041DA
:1012A400FFF712BFF09E0120002310B5084C012265
:1012B4000849094823600AF05DFD10B90123236041
:1012C40010BD064B064A07CA83E8070010BD00BFDD
:1012D40014FD02209C8C0120A0DD01204CFC022086
:1012E400808F01200022024910460AF043BD00BF4E
:1012F4009C8C012010B5C0B00021FF220446684632
:1013040011F0FAFD11480BF003FAFF2168460BF0C7
:1013140099FA90B92146684611F02EFF10B90120C0
:1013240040B010BD20460BF00FFA0028F7D002465B
:101334000749084803F044FE04E00246064905480C
:1013440003F03EFE002040B010BD00BF9C8C012085
:101354009C8F01204CFC02208C8F012001207047BF
:1013640008B9024870470020704700BF50C10120EF
:101374000122014B1A6070476CEC0220704700BFD9
:101384002DE9F04F434B8FB01E688046FFF79CFE5B
:1013940033780C2B6BD04FF0FF340025DFF8089125
:1013A400DFF800A106F1100B24E0A21A032A2CDCBA
:1013B400DAF8001001AFA1425BF80C2C0CBF3649DF
:1013C4003649384603F0FCFD1BF8102C5E460A2A09
:1013D40001D00B2A08D100214046EA00FFF7ECFCBB
:1013E40039464046FFF756FD327801350C2A0BF199
:1013F400100B0AD0D9F800200134A242D5DD5E4694
:1014040032780BF1100B0C2AF4D1224B19680B78AB
:101414000C2B25D0002301331A018A5C0C2AFAD143
:10142400DAF800209A4211DA022D0CDCED002A468B
:1014340000214046FFF7C0FC083540461849FFF735
:1014440029FD182DF3D10FB0BDE8F08F0023184605
:1014540001331A018A5C0C2AF9D1CAF80000E3E7C7
:10146400DAF80030002BDFDB4FF0FF30F5E7094BF3
:1014740019680B780C2B03D00025DFF828A0C9E7E6
:10148400084B1A68002A02DB4FF0FF321A6000256D
:10149400CCE700BF00E80120249001202C9001201B
:1014A4003490012068EC022064EC022000212DE934
:1014B400F0415E4DADF53E7DFF2236A8296011F066
:1014C4001BFDFFF7F1FE5A48FFF714FF002870D107
:1014D400064658480BF01CF9FF2136A80BF0B2F968
:1014E400044600286BD136A9534804F079F8214604
:1014F400582220A811F000FD214676AC4FF49072DA
:10150400204611F0F9FC21464C4B36AA20A80BF0DA
:101514003FFE074600287ED102AF04E0214620A802
:101524000BF0FAFC18BBA37E0BB32B68C72B1EDC95
:10153400237B13F01003F1D13B7041493B460DF579
:10154400F9700CAA11F0EEFB0028E7D038463D49AB
:1015540011F012FE3C4A0028E0D11268B2423BDD91
:10156400214620A801360BF0D7FC0028DBD020A8A8
:101574000BF04AFC00210C202B68344D344C05EB55
:101584000312C2E90141190168543249D1600BB117
:10159400314A1360314B3249324A334899605A61B7
:1015A40032491862294B00220B6031481946FFF773
:1015B400E7FEFFF797FE0DF53E7DBDE8F08110F0E4
:1015C400DFF8224601462B4804F00AF8FFF78AFEAA
:1015D4000DF53E7DBDE8F08101902868264A009013
:1015E40000EB800002EB80080DF5F97114224046EF
:1015F40011F04EFD0A210098144A019B02EB0012DF
:101604009360144BC2F80480D360104A0301D15490
:10161400431C2B60A4E710F0B3F83A460146174880
:1016240003F0DEFFFFF75EFEC5E700BF14FC0220F7
:10163400D88C01209C8C012044900120EC8F012047
:101644000C9001205C9001203CE8012010D1012085
:1016540038960120E512002038E8012058CF0120F7
:101664002117002059170020E915002000E8012067
:1016740044C10120B88F012070EC0220F08F0120BA
:1016840030B500242C4D2D4B2A688DB003EB02138A
:1016940059682B4811F04EFE2A4B2B481C60FFF76B
:1016A40013FD224621462848FFF786FB274B0DF100
:1016B400080C0FCBACE8070023482CF8023B02A926
:1016C4001B0C8CF80030FFF7E5FB0E2221461E4868
:1016D400FFF772FB1A4902A811F02CFE1A4802A95E
:1016E400FFF7D8FB00941A4A009B93420FDC019445
:1016F400019B092B05DC019B01330193019B092B01
:10170400F9DD009B01330093009B9342EFDD00233E
:10171400104A114C1168114A0B48116001222B60C8
:101724002360FFF72DFE0E4B0E480F490F4A9860B9
:1017340059611A620DB030BD68EC022010D101204D
:10174400E8E701203CE8012044C101206090012029
:10175400BFC62D0050FD022064EC022000E80120E9
:1017640058CF0120211700205917002051180020BC
:10177400002182B000910D4A009B93420FDC01913D
:10178400019B092B05DC019B01330193019B092B70
:10179400F9DD009B01330093009B9342EFDD0122AE
:1017A400034B0448196802B0FFF7EABDBFC62D0019
:1017B40000E8012044C10120094A0A491368013B99
:1017C400002BD6BF00201846034610600A6806485E
:1017D4009A42C8BF0B60054B00221968FFF7D0BDC1
:1017E40068EC022064EC022044C1012000E80120DE
:1017F400DFF860C000B5144BDCF800E019680EF1A6
:101804000100CCF800000B780C2B4FF0000304D03F
:1018140001331A018A5C0C2AFAD1984208BF704637
:101824000A4A08BFCCF800E01368C31A022B04DD8F
:1018340002384ABF002310601360002204485DF898
:1018440004EBFFF79DBD00BF00E8012064EC02201B
:1018540044C1012068EC022000B564228DB0FF2150
:101864001C4811F049FB1C48FFF72EFC00221A48C3
:101874001146FFF7A1FA194B0DF1080C0FCBACE898
:1018840007004FEA134E2CF8023B02A912488CF8C9
:1018940000E0FFF7FFFA00210091114A009B9342F8
:1018A4000FDC0191019B092B05DC019B01330193A2
:1018B400019B092BF9DD009B01330093009B9342AC
:1018C400EFDD084B012219680348FFF759FD0DB0FD
:1018D40000BD00BF64EC012044C1012070900120D0
:1018E400BFC62D0000E80120F8B5114F3D682B78E4
:1018F4000C2B14D000240F4E04E015F8103F0134D3
:101904000C2B0CD03268A242F7D10B2B08D02846FE
:10191400EB68984715F8103F01340C2BF2D1F8BD51
:10192400A968012204483960FFF72AFDE5E700BFF2
:1019340000E8012068EC022044C101204FF4807CBF
:101944000C4B00B553F8202003EB8003C00082F059
:10195400400200F1804003F5805E02F0C00200F511
:10196400203003F54053CEF800204160C3F800C096
:1019740000BD00BF04800340DFF81CC0C90041EA79
:1019840082015CF820200CEB8003514003F5805366
:1019940001F00C011960704704800340054B53F8B3
:1019A400202003EB8003514001F0010103F5805333
:1019B4001960704704800340064B53F8202003EB62
:1019C400800382EA011202F0300203F580531A60A8
:1019D400704700BF048003404FF0000300B543ECA0
:1019E400440043EC40004FF0050E4FF4807C0C4B58
:1019F400C20053F8201003EB800081F0400102F193
:101A0400804303F5203301F0C00200F5805100F556
:101A140040500A60C3F804E0C0F800C000BD00BF35
:101A2400048003404FF01F0C4FF480710C4B00B541
:101A340053F8202003EB8003C00082F0400200F141
:101A4400804003F5805E02F0C00200F5203003F50B
:101A54004053CEF80020C0F804C0196000BD00BF98
:101A6400048003400FB400B5084883B003F03AFD86
:101A7400049B3BB105A91846019103F015FB0448EA
:101A840003F030FD012003F027FB00BFA0900120EC
:101A940098960120EFF3108072B6064BD3E8CF1F5F
:101AA40001220029FAD1C3E8412F0029F6D1BFF35E
:101AB4005F8F70475BE301200023034AC2E88F3F36
:101AC40080F31088704700BF5BE3012070B51646B1
:101AD400EFF3108472B6DFF848E0DEE8CF2F01237D
:101AE400002AFAD1CEE8423F002AF6D1BFF35F8F35
:101AF400012301F0070CCA0803FA0CF310F802C022
:101B04001CEA030508D14CEA030C00F802C0CEE835
:101B14008F5F84F3108870BD3046FFF7A3FF00BFCA
:101B24005BE30120F8B50F461946EFF3108672B651
:101B34001C4DD5E8CF4F0123002CFAD1C5E8443F12
:101B4400002CF6D1BFF35F8F8A421BD8012402E038
:101B54000132914222D3D30810F803E002F0070CBB
:101B640004FA0CFC1EEA0C0FF2D14EEA0C0E00F83B
:101B740003E010460023C5E88F3F86F3108898429F
:101B840007DBF8BD0023C5E88F3F86F310884FF0CC
:101B9400FF30002FF5D00698FFF764FF4FF0FF30B9
:101BA400E8E700BF5BE30120044A1078431CDBB282
:101BB400182B28BF10231370704700BF7CC401206A
:101BC40000B5DFF81CC083B001461F231822CDF8EE
:101BD40000C00248FFF7A6FF03B000BDB4E7012030
:101BE400B09001204FF0E022936843F000539360DB
:101BF400704700BF0021044B03F12002C3E88F1F8C
:101C040001339342FAD1704750E301204FF0E023AF
:101C14004FF08032C3F80024C3F80424C3F8082426
:101C2400C3F80C24C3F81024C3F81424C3F81824EC
:101C3400C3F81C24C3F82024C3F82424C3F828249C
:101C4400C3F82C24C3F83024704700BF012300F0EC
:101C54001F029340400941B1800000F1604000F54B
:101C64006140C0F8803103607047024A203042F876
:101C74002030704700E100E00123064A410952F890
:101C8400212000F01F008340134214BF01200020D4
:101C9400704700BF00E100E0044B19B1C3F88001B4
:101CA40018607047C3F88000704700BF00E100E08F
:101CB40001224309034900F01F008240403341F8E8
:101CC4002320704700E100E0054A10309268054B7C
:101CD40052F82000C01A5F288CBF002001207047F2
:101CE40000ED00E080C4012010B582B0EFF3108451
:101CF40072B6164BD3E8CFCF0122BCF1000FF9D155
:101D0400C3E84C2FBCF1000FF4D1BFF35F8F104A2E
:101D140010309268DFF83CC052F82020624508D0A9
:101D2400914206D0CDE9000101F0F8F90199074B81
:101D34000098074A926842F82010BFF35F8F002290
:101D4400C3E88F2F84F3108802B010BD59E301203B
:101D540000ED00E01D0100102DE9F04F06468A4613
:101D6400154683B0EFF3108872B6714FD7E8CF2FC2
:101D74000123002AFAD1C7E8423F002AF6D1BFF373
:101D84005F8F6C4991F90020002A7BDB6A4802EBE3
:101D9400420400EB840393F806C0103681F800C0B7
:101DA4006649A40089684FEA420B51F826E0AEEB7D
:101DB40000015F292ED962498E4540F0848043F0AA
:101DC400010E604B02340444043B1B1BC3F34A035F
:101DD4006FEAC3434FF421416FEAD3435A4420F8D6
:101DE400221000EB820253804BF601539380FF23B1
:101DF400D571C2F808A09371504B9B6843F826E054
:101E0400BFF35F8F0023C7E88F3F88F3108803B0C8
:101E1400BDE8F08F2EF0010C9CF80710A9425AD9A6
:101E2400B14601941E4603E0CB79AB4230D98C46CF
:101E34009CF9064004EB4401002C00EB8101F3DA29
:101E440000944BF6015433464E460CF10409043B0E
:101E5400A3EB0903C3F34A036FEAC3436FEAD34313
:101E6400ACF80430384B0BEB02018CF8062040F838
:101E74002130009B00EB810294809371D571C2F8EC
:101E840008A0B9E701F04AF92A4991F900207DE751
:101E94006FF007010094019C33460C1B6146241A21
:101EA400019431F8044F4E4644F30A04023401EB22
:101EB4004404894601990C44C4F34A046FEAC444B7
:101EC4006FEAD444C3E7CDE9002301F027F9DDE943
:101ED4000023194873E71B4AA11CDD710144043A2D
:101EE400251D521A0544ACF10401491BC1F34A01F2
:101EF4006FEAC141C2F34A026FEAC2426FEAD141BA
:101F04004FF4214E6FEAD24299800F4920F804E041
:101F14005A804AF6AA256246121A524155432D0D9B
:101F2400C3F808A09D7143F0010ECCF8001063E7DC
:101F340059E30120F7FD022080C4012000ED00E0F8
:101F44001D010010E0C40120014880472DE9F04143
:101F5400EFF30583DBB29E46EFF3108572B6354985
:101F6400D1E8CF2F0123002AFAD1C1E8423F002A49
:101F7400F6D1BFF35F8FDFF8CC8040F00106D8F8CC
:101F840008704AF6AA2357F82E7004462A4AA41A5F
:101F9400644163431B0DB7425BB22ED092F90640F5
:101FA4009C4230D092F912409C4239D092F91E40A2
:101FB4009C4237D092F92A409C4235D092F936405F
:101FC4009C4233D092F942409C4227D092F94E4031
:101FD4009C422DD092F95A409C4208BF072413D04A
:101FE400164A002492F800C0137080F806C0C1E8B5
:101FF4008F4F85F31088BDE8F081D8F80820104C85
:1020040042F82E40ECE7002404EB440402EB840283
:10201400FF2494714BF601549480E1E70524F3E71F
:102024000124F1E70224EFE70324EDE70424EBE7BE
:102034000624E9E759E3012080C40120F7FD0220CA
:102044001D01001000ED00E000B5DFF824C083B0EE
:10205400014605230022CDF800C00448FFF762FDC5
:102064000028A8BFC0F1330003B000BDFBFD02206F
:10207400CC900120014B0B440360704750E30120D6
:1020840070B5104C104DAC420ED2FF26236863B1DC
:10209400FFF78AFD01462046FFF7ECFFA680BFF359
:1020A4005F8F0834AC42F1D370BDFFF77DFD01466C
:1020B4002046FFF7DFFF2671BFF35F8F0834AC4281
:1020C400E4D370BD60CC012080CC012010B504465F
:1020D400FFF76AFD01462046FFF7CCFFFF2323717B
:1020E400BFF35F8F10BD00BF10B504460120FFF79A
:1020F40067FD034B03442360BFF35F8F10BD00BF34
:1021040050E30120024B0B440360BFF35F8F704721
:1021140050E301200D4B1A68EFF3108172B6D2E838
:10212400CFCF0120BCF1000FF9D1C2E84C0FBCF1B4
:10213400000FF4D1BFF35F8F00221B68C3E88F2F19
:1021440081F3108840BF00200021704718FD022051
:102154002DE9F04F2DED028B85B0EFF30583DBB253
:10216400103B9A0818BF01224FF0010103F0030B42
:1021740018BFA94CA94B08BFA94C0BEB820253F81A
:10218400225001FA0BF204F541539FEDA18B029208
:102194005A602FE0AB88190440F19480AB79002B8E
:1021A40040F0DE80B5F90860002EC0F21C816B6936
:1021B40006EB460603EBC603D3E90267B7F1FF3F1C
:1021C40008BFB6F1FF3F0ED004EB8B01A36A0A6986
:1021D400D21AF31A934205D30123226A03FA0BF3AA
:1021E400134200D10E61204600F032FCB042B941E6
:1021F400C0F2F980B5F90860029B002EE363C9DBE5
:10220400D5F8149006EB460A09EBCA07BB682046CA
:10221400D7F80C80019300F01BFC019B984271EBF2
:102224000801B7DBB8F1000FC0F2C080D7E9043170
:102234007C4A934200F0F8807A88B5F9080092B29B
:1022440042EA0040984702460B4652EA030100F076
:10225400AD80002B80F2CD800199B1EB020E68EBCA
:10226400030839F93A30C7E902E8002B92DB6869C0
:1022740003EB430200EBC202D2E90271BE4578EBE4
:10228400010C4FEA430285DBAC462CF8083F06E01C
:1022940003EB430100EBC1015A00D1E90271BE45D1
:1022A40078EB01011A4405DB30F9323000EBC20C43
:1022B400002BEDDA29F83A30ACF80060AB88190449
:1022C4003FF56CAF2B69EFF3108272B6D3E8CF0FF2
:1022D40001210028FAD1C3E8401F0028F6D1BFF33A
:1022E4005F8F4FF6FF76A8880023296900B2AE807D
:1022F400C1E88F3F82F310889842FFF64FAF07463C
:10230400A1466E6905F10808B5F9083007EB470ED8
:10231400002BC44606EBCE0215DBD2E90240AA46E6
:10232400019704E036F935309446002B09DB03EBC2
:10233400430506EBC502D2E90271BC4270EB010110
:10234400F0DA5546019FACF8007036F93E7026F875
:102354003E30002FD8DAAB794C46002B3FF422AF45
:102364000023AB71B5F90860721C33463BD0686931
:1023740005F1080E03E08E465A1C3FF415AF03EB3B
:10238400430200EBC2014F889C463F0430F93230CF
:10239400F1D5664581ED028BEED0AEF80030298987
:1023A400664620F83210A5F808C0E5E739F83A3057
:1023B4002B812B69EFF3108272B6D3E8CF0F012182
:1023C4000028FAD1C3E8401F0028F6D1BFF35F8F7D
:1023D4006B88296929F83A3000236E80C1E88F3F61
:1023E40082F31088D6E640BF05B0BDEC028BBDE891
:1023F400F08F20460393019200F02AFB019A039B7D
:1024040010EB020E43EB01082BE700BFAFF3008093
:10241400FFFFFFFFFFFFFFFF00800B4024FC0220B3
:1024240000000B40B920002008460B69039198472F
:102434000028BBD00399D1E9002306E738B5384B0F
:102444001C692CB1BDE838400A213648FFF712BE9A
:102454000321354800F0EAFA334D314BDD60FFF7D4
:10246400A3FB324A4FF0504E024403202C4B4FF052
:102474000F0C18701A61DEF800204FF6FF715A70C5
:102484005A69A3F802C014834FF00204A2F848402A
:102494004FF00404A2F878404FF00504A2F89040ED
:1024A4004FF00604A2F8A8404FF00704A2F8C04079
:1024B4004FF00904A2F8F0404FF00A04A2F80841D2
:1024C4004FF00B04A2F820414FF00C04A2F838415D
:1024D4004FF0010414864FF00804A2F8D840144CBD
:1024E4004FF00D0E4FF00E0C9C6008249980A2F85A
:1024F40050E1A2F868C1A2F8600011800D4A2C6274
:102504000D49D360FFF7F0FB01210320FFF79EFB89
:102514000A4B0A211C640348BDE83840FFF7AABDF2
:10252400F8C4012018FD022000000B4050E30120F4
:10253400FFFF100024FC0220B920002000200B40E3
:1025440000487047F8C40120F0B583B09DF82840D6
:102554001D46034654B9CDE9000200F081FA019A00
:10256400009B824265EB0101A1425BDB1969EFF339
:10257400108072B6D1E8CF6F0124002EFAD1C1E8E1
:10258400464F002EF6D1BFF35F8FB3F902401F69A7
:10259400002C3EDBD3F814C004EB440E3CF83E1090
:1025A400002659800CEBCE01C7E88F6F80F31088AA
:1025B4004888C1E902250130C0F30E00012838BF64
:1025C4000120089A48800A61099A40EA04404A6155
:1025D4001A69EFF3108172B6D2E8CF7F0125002F7C
:1025E400FAD1C2E8475F002FF6D1BFF35F8F9A8814
:1025F4002CF83E201A699C80C2E88F6F81F3108802
:1026040001211C78DA68A14002F50153596003B036
:10261400F0BD0023C7E88F3F80F310884FF0FF30F0
:1026240003B0F0BD204603B0F0BD00BFF0B51646C0
:102634001F4602690346EFF3108072B6D2E8CF4F0B
:102644000121002CFAD1C2E8441F002CF6D1BFF3BB
:102654005F8FB3F902101D69002945DBD3F814E03C
:1026640001EB41023EF832400EEBC20C5C800024C8
:10267400C5E88F4F80F3108805983546CCF81000D4
:1026840006983E46CCF81400BCF80200CCE9025689
:102694000130C0F30E00012838BF0120ACF802005D
:1026A40040EA0140D3F810C0EFF3108572B6DCE8BD
:1026B400CF7F0126002FFAD1CCE8476F002FF6D147
:1026C400BFF35F8FB3F804C02EF832C099801A6943
:1026D400C2E88F4F85F3108801211C78DA68A14085
:1026E40002F501535960F0BD0023C5E88F3F80F324
:1026F40010884FF0FF30F0BD03464089B0EB214F06
:102704003ADD58690A1402EB420210B5D3F810C03E
:1027140000EBC200EFF3108E72B6DCE8CF4F01225B
:10272400002CFAD1CCE8442F002CF6D1BFF35F8FF4
:10273400428889B292B28A4207D000221B69C3E858
:102744008F2F8EF31088002010BD6FEA42426FEA8B
:10275400524242800121002218699971C0E88F2FEA
:102764008EF3108893F800C0DA68084602F5015326
:1027740001FA0CF1596010BD002070474078704791
:102784002DE9F04182B004460D4600F069F94FF09E
:10279400FF326FF00043241845EB0105A24273EBAE
:1027A40005013CBF14461D46A61F45F1FF37B44240
:1027B40075EB07033CBF0026374600F051F9301A89
:1027C40067EB0101012871F1000106DA2046294670
:1027D40002B0BDE8F04100F07DB900F041F9864255
:1027E40067EB010100290ADB0021174B32460093F5
:1027F40016483B460191FFF719FF0130E6D04FF030
:10280400000C134A1349536A9F4204D8906AB04299
:10281400DCD29F42DAD10B68EFF3108072B6D3E8B2
:10282400CF8F5FF0010EB8F1000FF8D1C3E848EF85
:10283400B8F1000FF3D1BFF35F8F0B68C3E88FCFFC
:1028440080F3108820BFDEE77D200020F8C401203B
:1028540000000B4018FD02202DE9F04182B006462D
:1028640000F0FEF84FF47A7304464FF0FF306FF037
:102874000042E6FB0341A04272EB01033ABF044667
:1028840015460D46A61F45F1FF37B44275EB070305
:102894003CBF0026374600F0E3F8301A67EB01012D
:1028A400012871F1000106DA2046294602B0BDE88C
:1028B400F04100F00FB900F0D3F8864267EB010154
:1028C40000290ADB0021174B3246009316483B4689
:1028D4000191FFF7ABFE0130E6D04FF0000C134A34
:1028E4001349536A9F4204D8906AB042DCD29F4293
:1028F400DAD10B68EFF3108072B6D3E8CF8F5FF0B4
:10290400010EB8F1000FF8D1C3E848EFB8F1000F99
:10291400F3D1BFF35F8F0B68C3E88FCF80F31088C8
:1029240020BFDEE77D200020F8C4012000000B401A
:1029340018FD0220EFF30582D2B282B1384B5A6AF5
:102944008A4202D200221046704714BF012200229C
:102954009B6A834228BF42F001021046704770B55B
:1029640084B003922F4A0646D368157818460C465D
:10297400029300F06DF8029B05F1040C53F82CC08F
:10298400039AACEB000C301A64EB0101604571F161
:1029940000010FDB20BF224B596AA14207D314BFA9
:1029A400012200229B6AB34228BF42F00102104672
:1029B40004B070BD029200F053F8864264EB01014A
:1029C4000029029A1BDB18492346CDE90012154859
:1029D4003246FFF72BFE011E11DD114B5A6AA2424B
:1029E4001CD39B6AB34217D30E48FFF785FE0C4BEA
:1029F4005A6AA242D3D20022104604B070BD084BDA
:102A04005A6AA242F7D3121B18BF01229B6AB3422F
:102A140028BF42F00102CAE7A242E5D120BFE3E7A2
:102A240000000B40F8C401207D20002010B4054BA9
:102A3400054C064AA04214BF1846581C10BCFFF7A8
:102A440045B800BFB8E7012000800B40E8900120A2
:102A54000346416A0A46986A596A8A42FAD170471B
:102A6400034B596A0A46986A596A9142FAD17047E7
:102A740000000B4000B58E46154A536A9C46916A85
:102A8400536A6345FAD1401853EB0E034FF000022A
:102A940028BF0122BAB10E4B5A6A531C08BF104614
:102AA40008D04FF0FF33184609494A6A9A42FCD3CA
:102AB4009A4207D1064B02E0596A914202D1996ABF
:102AC4008142F9D300BD024A526A9342ECD8EFE73F
:102AD40000000B40074A536A9942FCD8994207D137
:102AE400044B02E05A6A914202D19A6A9042F9D8A0
:102AF400704700BF00000B4000EB400C4FEA8C0C09
:102B04000CF1804C0CF5803C70B51E46DCF80430AA
:102B1400041FB3F5803F38BF4FF48033E4B238BFAD
:102B2400CCF80430012C2ED94FF40065284B0CF559
:102B3400405ECEF8005053F820E0BEF1000F17D1EC
:102B4400DCF800E0012C8EEA421202F0E0020CF5FF
:102B5400805ECEF800202BD94FF4006143F820604A
:102B64004FF480330CF500521160CCF8043070BD82
:102B74005D69B5FBFEFE0EF1010E0EEB4E0EBEF1CD
:102B8400030EFCD2DCE70129CED103240CF540531B
:102B94001C60DCF80830DB07FBD5DCF800300CF5F2
:102BA400805E83EA421303F0E003CEF80030084B62
:102BB4000122DCF800404C4004F00304CEF800404D
:102BC40002FA01F1DCF808200A42FBD0C4E700BF96
:102BD400C0E70120014B53F820007047C0E70120F3
:102BE4002DE9F041584C0646206C1746B0F5803F5D
:102BF40038BF4FF480320B464FF0030184B038BF26
:102C04002264524A504CD163626CD207FCD5E26B09
:102C14004F4982F0200202F0E002CA63E26B4A4CA0
:102C240082F0010202F00302CA63626C9507FCD5CC
:102C34004FF400614FF48038464A474DD163474A08
:102C440003936A6101213246C4F8408044480097E6
:102C540000F046F94FF40061039B07FB03F3B6FB56
:102C6400F3F6636B434538BFC4F83480374B2A69A5
:102C740019633AB16B69B3FBF2F3013303EB43031A
:102C8400033BFDD23049324A0B6B03F0E00313637C
:102C94000B6B83F0020303F0030313638B6B58077E
:102CA400FCD54FF400644FF480332A4A14632D4A50
:102CB4004B632A610A6C244C9A424FF0030238BFDA
:102CC4000B64224BDA63636CDA07FCD5E36B204AAE
:102CD40003F0E003D363E36B1B4983F0010303F0C8
:102CE4000303D3634B6C9B07FCD54FF480334FF441
:102CF4000064184A6E61D4630B64CA6C9A4238BF8C
:102D0400CB644FF40061114BAA6999643AB16B69C1
:102D1400B3FBF2F3013303EB4303033BFDD24FF464
:102D240000604FF48031084A094C936C83F04003EF
:102D340003F0E003A364074B084CAC619864D164CE
:102D440004B0BDE8F08100BF000001400030014044
:102D54000010014000200140C0E70120006CDC02AB
:102D640000000540001BB7002DE9F04F4FF4A07898
:102D7400964685B00391DFF864915649019349451D
:102D84000AD908F1FF38A1F53B51B8F10F0FA1F1B1
:102D94002001F4D1002066E0072301F537220291D7
:102DA40003FB03F102F5D872B2FBF1FA82454FF04E
:102DB400010C4FF002074FF003064FF004054FF0EB
:102DC40005043FD0B3F1010A00F082800AFB03F14D
:102DD400B2FBF1FB584549D01CB303FB04F1B2FB31
:102DE400F1FB58454BD0E5B105FB03F1B2FBF1FB18
:102DF40058454DD0AEB106FB03F1B2FBF1FB58458B
:102E04004FD077B107FB03F1B2FBF1FB584551D02A
:102E1400BCF1000F05D00CFB03F1B2FBF1FB8345C1
:102E24004DD0534603FB03F1B2FBF1FA824504F1A2
:102E3400FF3405F1FF3506F1FF3607F1FF370CF1DA
:102E4400FF3CBFD101FB10210029BBD172461F46B4
:102E5400DDF80CA00120204901FB08F1CAF800109C
:102E64001360019B1F6005B0BDE8F08F01FB1021CA
:102E74000029B1D157467246DDF80CA0EAE701FB00
:102E840010210029AFD172462746DDF80CA0E1E7F6
:102E940001FB10210029ADD172462F46DDF80CA0AC
:102EA400D8E701FB10210029ABD172463746DDF883
:102EB4000CA0CFE701FB10210029A9D1DBE701FB1E
:102EC40010210029ADD172466746DDF80CA0C1E798
:102ED400029956E750262F00001BB70050F80C004B
:102EE40010B5029C8E464FEA043C4CEA034C1C4B42
:102EF400B3FBF1F30168B2FBF3F4002920DB194AB8
:102F0400194B904214BF4FF480424FF400421749CA
:102F14001A6003F580531A608B6832EA0303FBD10D
:102F2400212200F540530433C0F800E084601A60A5
:102F34000268002AFCDA0822C0F80CC01A6010BD2E
:102F4400036803F03F037345D9D18368C3F30B03CC
:102F5400A342D4D1C36803F4EE236345CFD110BD9B
:102F6400001BB70000800540002002400000024022
:102F74004FF0804C214B00B5C3F800C0002839D075
:102F8400DFF888C0A3F54053C3F81CC0DFF880C045
:102F940040F0010080EA0C0CC3F820C0596298622A
:102FA4004FF0804E4FF0E061144B1548DFF864C0D9
:102FB400C3F800E0C0F808C019602AB94FF0004215
:102FC400A3F580531A6000BD4FF47A7303FB02F239
:102FD400B2F1807F2ABF6FF07F4313461A464FF049
:102FE4008041DFF834C00748CCF80030064B42601B
:102FF400196000BD034BD861D2E700BF00B00D409B
:1030040000A0014000800D4000A00D40D3C007B0D7
:103014002D3FF84FF3FFFF0160EC0120012300EB8B
:103024004000800000F1804000F58410416003609E
:10303400704700BF10B5002482B00B46E48A00211B
:1030440041E800F1CDE900034B0254BF10210421F3
:1030540044F25220A047DDE9002386460A214FF4BA
:103064008170F44602B0BDE8104060470023DB8A5B
:10307400002242E800F2520201D410211847042130
:10308400184700BF08B5034608462BB193FAA3F3CB
:10309400B3FA83F341F020001946FFF7CBFF00BFDA
:1030A40008B503460846191E02DB1AB140F0300089
:1030B400FFF7C0FF40F02000FAE700BF034AD2F850
:1030C4002838002BFBD0BFF35F8F704700000E4001
:1030D4000021044B044ABFF35F8F43F8041B93425F
:1030E400F9D170470C080E402C080E404FF42A6C9E
:1030F4004FF48D70054A064B0649C2F800C0D060F3
:1031040019605368002BFCDA704700BF008004404C
:1031140000A0044000B0FA00704700BF08B50148A1
:10312400FEF7A0FC0C91012038B5054C054DAC42CE
:1031340004D254F8043B9847AC42FAD338BD00BFDC
:1031440080CC0120C0CC012038B5054C054DAC42E3
:1031540004D254F8043B9847AC42FAD338BD00BFBC
:10316400ACCC0120C0CC01200648DFF828C0064BB7
:10317400064A0749C0F800C01A608B6832EA0303A4
:10318400FBD170470020024000300240F6FFF303F9
:10319400000002407F3BEFEF044BDB6CB3F5004FC4
:1031A40003D14FF48022024BDA64704700001150BF
:1031B400002011504FF0E022044BD2F8881D0B433D
:1031C400C2F8883D10EE3004704700BF030330009E
:1031D4006FF06041044B054A19609368DB4333F098
:1031E4006043FAD1704700BF003002400000024043
:1031F40010B545F25320FFF739FFBDE810400346F0
:103204000420184710B545F25320FFF72FFFBDE8FF
:103214001040034601201847FEF7ECBC10B5044CDF
:103224004FF48872A168034810F0E2F8A06010BD62
:1032340000ED00E000000020002370B52B4C82B0AC
:10324400C4F88430FFF752FF0122294BDA63636C20
:10325400012BFCD10321264A244B11639C6B012CC6
:10326400FCD10226052521460523224A2248009640
:10327400FFF736FE21462B46204A21480095FFF7EA
:103284002FFE0022042031461E4BFFF735FC214659
:10329400284600221C4BFFF72FFC00220820114671
:1032A4001A4BFFF729FC002209201146174BFFF7A0
:1032B40023FC002206201146134BFFF71DFC0022BD
:1032C400114B07201146FFF717FC0420FFF782FC7F
:1032D40000240F4BA3FB0035AD0CE0B229460134AA
:1032E400FFF79CFE062CF8D102B070BD000001402F
:1032F40000300140002F685900000540008C8647CB
:1033040000800540001BB70080D1F008006CDC028F
:1033140083DE1B4380F30A88704700BF86B003B482
:1033240051FC0804CDE9020151FC0904CDE9040172
:1033340051EC0A04CDE9060103BCF047BDE8005096
:103344004EEC00C4BDE800504EEC01C4BDE8005092
:103354004EEC02C400BD000000B5FFF7DFFF02E041
:1033640010FE30F4F8D441EC100443EC112400EEC8
:10337400010410EE010480EE200451EC10047047A7
:1033840000B5FFF7CBFF02E010FE30F4F8D441ECB7
:10339400100443EC112400EE010410EE210480EE2D
:1033A400200451EC3004704700B5FFF7B7FF02E08A
:1033B40010FE30F4F8D410B541EC100443EC1124A1
:1033C40051EC040453EC0524A0FB024C5FF0000E06
:1033D400E0FB03CEE1FB02CE4CEC20440024E1FBF5
:1033E40003E444EC30E480EE200451EC5004BDE8E6
:1033F4001040704700B5FFF791FF02E010FE30F473
:10340400F8D441EC100443EC112451EC2104A0FB4A
:1034140001126FEA820252FB100052FB12F252FBBD
:103424001000A0EBD07C53EC04245CFB13F153ECB0
:103434001524A1FB022001FB030053EC4424A2EB5E
:10344400000050FB1CF24FEA111312EB017043EB26
:10345400E27140EA515020EA915020F0070053EC09
:103464007524A0FB023C53EC752400FB03CC01FB48
:1034740002CC53EC0424ACEB824C40EA5C70A0F127
:10348400010041EC400480EE200451EC70047047CC
:1034940000B5FFF743FF02E010FE30F4F8D441EC2E
:1034A400100480EE220410EEB204704700B5FFF75A
:1034B40035FF02E010FE30F4F8D440EC700400EE66
:1034C400010410EE210480EE200451EC3004704716
:1034D40000B5FFF723FF02E010FE30F4F8D440EC0F
:1034E400600400EE010410EE210480EE200451EC8F
:1034F4003004704700B5FFF711FF02E010FE30F40E
:10350400F8D441EC800400EE010410EE010480EED6
:10351400400410EE1304704700B5FFF7FFFE02E00D
:1035240010FE30F4F8D441EC800400EE010410EEF7
:10353400010480EE400410EE3304704700B5FFF739
:10354400EDFE02E010FE30F4F8D441EC100443EC3C
:10355400112400EE010410EE3004C0F30070704733
:1035640000B5FFF7DBFE02E010FE30F4F8D441ECC6
:10357400100443EC112400EE010410EE3004C0F3F7
:103584008070704700B5FFF7C9FE02E010FE30F40A
:10359400F8D443EC102441EC110400EE010410EEC5
:1035A40030F48CBF01200020704700BF00B5FFF746
:1035B400B5FE02E010FE30F4F8D443EC102441ECE4
:1035C400110400EE010410EE30F42CBF01200020A1
:1035D400704700BF00B5FFF7A1FE02E010FE30F413
:1035E400F8D441EC100443EC112400EE010410EE75
:1035F40030F42CBF01200020704700BF00B5FFF756
:103604008DFE02E010FE30F4F8D441EC100443ECDB
:10361400112400EE010410EE30F48CBF01200020D0
:10362400704700BF0022002950DA404261EB41019B
:10363400C9B1B1FA81F30B3B17D4D3F1200C30FAA2
:103644000CFC9840994051EA0C011A44524202F28F
:10365400324201EB025141F0004140F2FE739A42C2
:1036640038BF704721E011467EE003F1210310FAD0
:1036740003FCA3F1010301FA03FCC3F1200320FAC4
:1036840003F021FA03F140EA0C00A3EB020202F278
:10369400324214D050F1000041EB025141F000419C
:1036A40040F2FE739A4238BF70474FF00001A8BF42
:1036B400C7F6F0714FF00000704700217047EBD35C
:1036C40050F1000020F00100E6E70022B9B1B1FAA0
:1036D40081F30B3B16D4D3F1200C30FA0CFC984048
:1036E400994051EA0C011A44524202F2324201EB6F
:1036F400025140F2FE739A4238BF704720E01146EF
:1037040000F066B803F1210310FA03FCA3F10103EE
:1037140001FA03FCC3F1200320FA03F021FA03F1B8
:1037240040EA0C00A3EB020202F2324212D050F142
:10373400000041EB025140F2FE739A4238BF7047D9
:103744004FF00001A8BFC7F6F0714FF000007047BA
:1037540000217047EDD350F1000020F00100E8E7AC
:10376400002880F235804042B0FA80F30B3B11D43C
:10377400984001EB0302524202F2124200EB025162
:1037840041F000414FF0000040F2FE739A4238BF0E
:10379400704713E0C3F1000330FA03FCC3F12002C5
:1037A4009040A3EB010202F212420CEB025141F0F1
:1037B400004140F2FE739A4238BF70474FF0004117
:1037C400A8BFCFF6F0714FF000007047002170479A
:1037D40060B3B0FA80F30B3B0FD4984001EB0302C3
:1037E400524202F2124200EB02514FF0000040F24A
:1037F400FE739A4238BF704710E05B4230FA03FC14
:10380400C3F120029040A3EB010202F212420CEB3E
:10381400025140F2FE739A4238BF70474FF00001E4
:10382400A8BFC7F6F0714FF0000070470021704741
:103834000022A2F232425FEA215CACF10103A1EB67
:1038440003515B0513F5800F32D212EB535210D49F
:103854000B2A36DA9140D2F1200330FA03F31943EC
:103864009040BCF1000FA8BF7047404261EB41019A
:10387400704720320EDD01FA02F3D2F12002D1406A
:10388400D0401843BCF1000FA8BF7047404261EB21
:1038940041017047524282F3050231FA02F00021DD
:1038A400BCF1000FA8BF7047404261EB4101704773
:1038B40002D000200021704750EA013118BF4FF0B8
:1038C400000C6FF0004101EBDC716FEAEC707047A3
:1038D40038B50446094813F09BFF20460EF070FCEF
:1038E4000546064814F082F82DB1054B2C449C4241
:1038F40001D8284638BD0348FEF7B4F860CC01204F
:10390400000008201891012010B50446054813F062
:103914007FFF20460EF05CFCBDE81040014814F027
:1039240065B800BF60CC01209A4238BF8854704704
:10393400704700BF2DE9F04F83B00F461146DDE913
:103944000EB292079846DDE90C93064629D00D463F
:103954009BB109EB030405EB040A01950D460D9395
:10396400AAEB040214F8010D43463946B047A145B9
:10397400F6D129460D9B019D1D440F9B9B070CD539
:103984006C1AA34509D92A464346394620200134F6
:10399400B0475C4505F10105F5D3284603B0BDE801
:1039A400F08F5B4515D28A461C468946ABEB03056E
:1039B4000D4452464346394620200AF1010AB047D5
:1039C400AA45F6D149462346DDF83090002CC0D1F3
:1039D400E3E70D46002BBCD1DFE700BF2DE9F04F34
:1039E4000F460F9906469DF82C008D079046DDE999
:1039F4000CA299468346099CDDF828C00E9B49D445
:103A0400002B42D1944545D201F0010504F1FF3E5B
:103A14003020E64405E00CF1010C62450EF8010F7C
:103A240002D9BCF1200FF6D1002D00F08780634548
:103A340030D9601E4FF0300E604405E00CF1010CEB
:103A44009C4500F801EF25D0BCF1200FF6D1CD063E
:103A54000ED5480551D4624564D0634562D0BAF1AD
:103A6400100F4DD0BAF1020F55D0BCF1200F2DD15B
:103A74002022CDE90B310A924B4642463946304664
:103A84000994BDE8F04FFFF755BF11F001052ED1A1
:103A94009445BBD3CD061ED54805E0D4BCF1000F38
:103AA400D9D1BAF1100F5FD0BAF1020F74D030221D
:103AB4004FF0010C2270BBF1000F12D1480742D520
:103AC4002B2204F80C200CF10102D2E762460CF11F
:103AD400010C3020A054BCF1200FC9D0BBF1000F61
:103AE400ECD02D2204F80C200CF10102C1E798B3AC
:103AF400944503F1FF3389D399E7BAF1100FB7D195
:103B04008D063DD5BCF1200FB2D0582204F80C200C
:103B14000CF1010CA9E7BCF1200FA9D062460CF10D
:103B2400010C08E0BCF10102BBD0BAF1100F35D092
:103B3400BAF1020FCDD16220A05496E7CD06CAD5C2
:103B4400480588D58BE70A0749BF2022624604F856
:103B54000C200CF101028CE711F00C0F00D0013B9A
:103B64009445FFF453AF62E78A0613D47822227097
:103B740030224FF0020C6270BBF1000F9ED0B0E710
:103B8400BCF1200F3FF474AF782204F80C200CF140
:103B9400010C6AE75822EAE76222E8E78D06ACF1F5
:103BA400020004D54FF0580E04F800E091E74FF0FE
:103BB400780E04F800E08CE700B9704701F050BCBF
:103BC40010B1D1E900311847704700BF0000000070
:103BD4002DE9F04F97B09DED207BDDE9225B804617
:103BE400894651EC170B9A46249B0C920793024684
:103BF4000B468DED047BFFF7A5FC002840F0E28125
:103C0400DDE904014FF0FF326FF48013FFF7BEFCCF
:103C1400002840F0CB80DDE904014FF0FF32BA4BBD
:103C2400FFF7F0FC002840F09F80DDE90467B2A3B1
:103C3400D3E9002330463946FFF7E4FC002840F07E
:103C44008280AFA3D3E9002330463946FFF79EFCB8
:103C5400002878D13046394600220023FFF796FC2D
:103C6400002840F098800D90079B302113F4806F5A
:103C740008BF06250EAA2B46A5F1200605E0013B48
:103C8400B34202F8011B00F06481092BF7D81E46E9
:103C9400ED1ADDE90401FFF731FC9C4B044603EB0C
:103CA400C60393ED007B8DED087BFFF703FC024612
:103CB4000B46DDE90401FFF767FBDDE90823FFF7A5
:103CC40077FBCDE90A01FFF72BFC0746FFF704FC5D
:103CD40002460B46DDE90A01FFF756FB00228C4B36
:103CE400CDE90A01FFF78EFC002800F08880013737
:103CF4003846FFF7F1FB02460B46DDE90801FFF702
:103D040059FC08B100270134002E00F088800DF121
:103D14003703DFF810C258190DE0ACFB0721C908BE
:103D240001EB8102A7EB42023032092F00F8012F88
:103D340040F2FA800F46202D06F1FF3605F1010509
:103D4400EBD1202586E0079B9DED047BCDE923B3D1
:103D54004946534640460C9A8DED207B229517B078
:103D6400BDE8F04F00F080B9079B494658074CBFA7
:103D740004230323404621935346079A48BF654CC6
:103D8400CDE922B258BF644C0C9A209417B0BDE818
:103D9400F04FFFF7CFBD3B46324600200021FFF72E
:103DA400F3FA0123CDE904010D935DE7079B03F0CA
:103DB40002029C07049200F0F3800C9F3D46574E8C
:103DC400341D14F8010D2A4653464946C047A642FD
:103DD40005F10105F5D1049B3C1D63B10C9D631BEA
:103DE4009B4508D922465346494620200134C04702
:103DF400631B9B45F6D8204617B0BDE8F08F002220
:103E0400DDE90A01424BFFF7C1FB00287FF47CAFD8
:103E1400002F40F0C1800137002E7FF478AF204698
:103E2400FFF748FB02460B46DDE90401FFF7ACFA55
:103E34000022374B06460F46FFF7A8FB40B9304631
:103E440039460022324BFFF7DDFB002800F0A0804A
:103E54000DF13703324859190DE080FB0476C2EBAB
:103E6400A60202EB8206A4EB460630361446013560
:103E740001F8016F72B3202D4FEAE472EDD1079A75
:103E840002F00302012A14D1BBF1000F11D00D9AE4
:103E9400002A60D00BF1FF3BBBF1200F09D930227F
:103EA4002B4404E001355D4503F8012F18D2202D81
:103EB400F8D1079B0EACCDE902B3009453464946B2
:103EC40040460C9A0195FFF735FD0446204617B08D
:103ED400BDE8F08F079A02F00302012A00F0AF80D8
:103EE400202DE6D00D9B002B3FD02D220DEB05039A
:103EF40083F838200135DCE70000000065CDCD41B2
:103F04000000000065CDCDC1FFFFEF7FC09F012001
:103F14000000E03F809101208891012090910120D0
:103F240067666666CDCCCCCC202D3FF40AAF302139
:103F34002E445A1905E00135202D02F8011F3FF4E3
:103F440000AFAE42F7D12E226E44013586F83820F8
:103F540080E720259DE6079A12F00C0F5AD00BF14A
:103F6400FF3BAB459BD8202DA3D0079B5A0706D512
:103F74002B220DEB050383F83820013599E71B0745
:103F840097D520220DEB050383F83820013590E7FF
:103F9400013424F001045BE7F9077FF5B5AE3AE795
:103FA400BBF1040F7FF609AF0C9B1D46043B03EBEA
:103FB4000B072A465346494620200135C047AF42E5
:103FC400F7D1FBE6079B03F002029D07049225D07C
:103FD4000C9F3D46224EF41C14F8010D2A4653460C
:103FE4004946C047A64205F10105F5D1049BFC1CD6
:103FF400002B3FF400AF0C9D631B9B457FF6FBAE8B
:1040040022465346494620200134C047631B9B4542
:10401400F6D8F0E6AB453FF642AF4AE7BBF1030FF3
:10402400D6D90C9B1D46033B03EB0B072A4653468C
:10403400494620200135C047BD42F7D1C9E7BBF14D
:10404400000F3FF44DAF0D9A002A84D00BF1FF3BD3
:104054005D45FFF424AF202D7FF447AF29E700BF6F
:104064008C910120000000002DE9F04F9FB01E4606
:10407400DDE928ABDDE92B982A9B04460D460B921B
:104084000A9352465B4650465946FFF75BFA0028AE
:1040940040F0C680504659464FF0FF327B4BFFF745
:1040A400B1FA002840F0BC80504659464FF0FF3228
:1040B4006FF48013FFF76AFA002840F0B18050468D
:1040C400594600220023FFF761FA002840F0DD8101
:1040D400CDE908ABDDE9081218F480600B460F4601
:1040E40008F400610C921491159040F0A8801343D9
:1040F40040F0D080002940F0EC8106230A9318F0A8
:104104000202109240F0DD814B46042B38BF042399
:104114000E920422043B12921493504659460022F4
:104124000023FFF733FA002840F0FB819DED087B64
:10413400149B0B9A03930A9B8DED007B029328F446
:1041440000630493294633462046FFF741FD0246A7
:1041540018F0200F334629460CBF6520452002F194
:104164000108A047129B0DF1580A03F1FF3B0E9B77
:10417400002283EAE37C5046DFF814E10B9FACEBAA
:10418400E37CD90FCDF8208002E0202AC44610D069
:10419400AEFB0C384FEAD80808EB8803ACEB4303BA
:1041A40001303033BCF1090F02F1010200F8013C87
:1041B400EBD805234FF0000C06930A23DDF820808A
:1041C400CDE90121CDE9033CCDF800A033464246B8
:1041D40029462046CDF814B0FFF700FC109B824618
:1041E400D3B1A0EB0708C14516D907EB0802334643
:1041F4002946202008F10108A047C145F5D87B1EB7
:104204004B44C7F10102A3EB0A035244914538BF62
:1042140000230AF1010A9A4450461FB0BDE8F08F0A
:10422400334629462046CDE928AB0A9CCDE92B9894
:104234000B9A2A941FB0BDE8F04FFFF7C9BC57EAA8
:10424400020329D100293FF45AAF00230E930A9B9D
:104254000E9A934200F3B981002750465946002232
:104264000023FFF793F9002840F015819DED087BAA
:1042740028F4006343F480632C938DED287B33464C
:1042840029462046CDE92A790B9AD3E7FFFFEF7F31
:10429400CDCCCCCC06230A930C9BC3F30A50A0F2DA
:1042A400FF30FFF707F9BCA3D3E90023FFF780F839
:1042B400BBA3D3E90023FFF753F80C9BCDE90E0110
:1042C400C3F3130343F07F5138460022AC4B41F44F
:1042D4004011FFF759F89EA3D3E90023FFF768F8CC
:1042E40002460B46DDE90E01FFF73AF8FFF706F93F
:1042F4000E90FFF7DFF898A3D3E90023CDE90C0172
:10430400FFF756F800229F4BFFF72AF8FFF7F6F85D
:1043140093A3D3E900230746DDE90C01FFF748F82E
:10432400CDE90C013846FFF7C5F88FA3D3E9002384
:10433400FFF73EF802460B46DDE90C01FFF724F8CF
:1043440002460B46CDE90C23FFF732F8CDE9100104
:10435400DDE90C0102460B46FFF702F80022CDE925
:104364001201DDE91001884BFFF748F80022874B62
:10437400FEF7F6FF02460B46DDE91001FFF73EF8B3
:104384000022834BFEF7ECFF02460B46DDE91001E9
:10439400FFF734F8CDE91001DDE90C2300204FF0DC
:1043A4008041FEF7F1FF02460B46DDE91001FEF7FE
:1043B400D7FF02460B46DDE91201FFF71FF8002282
:1043C400744BFEF7CDFF07F2FF3C00224FEA0C537B
:1043D400FEF7EEFF02460B46DDE90801CDE90C23AA
:1043E400FFF7D4F850B1DDE90C010E9B0022013B2C
:1043F4000E93664BFFF702F8CDE90C01DDE90C01E1
:104404000E9B02466333C62B08F002031093149BE1
:104414002DD8002B5FD0042312930A433FF417AF27
:10442400DDE9080152A3D3E90023FFF7D7F848B127
:10443400DDE9080150A3D3E90023FFF7A7F800281A
:104444007FF405AF0A9B002B51D0159A002A00F087
:10445400AB80013B0A93129B994505D9109B002B15
:1044640000F0AE80022310930023149344E02BBB8E
:10447400B9F1050F4FD908F00203002B49D10523E8
:104484001293A9F1050314933AE00BF10043CDF81C
:1044940020A009931EE628F4006343F480632046B9
:1044A400CDE92A792C933346DDE908673446294659
:1044B40007F10045CDE928450B9ABBE60523129385
:1044C400ABE70222002310920422149312920E935B
:1044D40023E60527C1E6B9F1040F1FD9109B002B71
:1044E40076D104231293A9F10403149304E0129BDC
:1044F40099455ED80A9B14930E9B002B3FF40DAE96
:10450400DDE90801DDE90C23FEF778FFCDE90801B8
:1045140003E60223109305231293F1E70423129375
:10452400EAE7149BDDE908A703930A9B07F1004B14
:10453400029328F400630B9A0493294633462046D9
:10454400CDE900ABFFF744FB024601E6AFF3008080
:1045540061436F63A787D23F71A379094F930A40E0
:104564001655B5BBB16B0240EF39FAFE422EE63F59
:104574002D431CEBE2361A3F0000000080842E41DC
:104584000000F83F0000E03F00002C400000244001
:10459400000018400000F03FFB799F501344D33FC4
:1045A400B3C8608B288AC63F129B994515D81492CC
:1045B400A2E7109B23B10A9B1493022310939BE759
:1045C400129BA9EB0303149396E79B1A5F1E44E620
:1045D40004231293022310938EE7109B002BEFD039
:1045E40002231492109387E72DE9F04F91469A4CD9
:1045F4009A4AB1F1000A9BB018BF83461460187838
:10460400974ADDF8908008BF9346002800F08A821C
:104614001D460026CDF8209008E032465146089BFE
:10462400D84701362878002800F0C780252805F1EE
:104634000105F2D100222B4613F8011BA1F1200041
:1046440010280AD8DFE800F03F09093B09090909E5
:1046540009090937093309092F00A1F13000092894
:1046640040F289802A2900F0E98000242E2900F0F4
:1046740094800027A1F1680012282CD8DFE810F0FC
:104684004E012B0049012B0040012B002B002B0075
:104694002B002B002B002B0027002B002B002B00C2
:1046A4002B002B0027001D4642F00102C3E71D46E4
:1046B40042F00202BFE71D4642F00402BBE71D467A
:1046C40042F01002B7E71D4642F00802B3E76978EA
:1046D40042F48072013367291D467ED8242940F2B2
:1046E400B880A1F12503422B00F2B380DFE813F078
:1046F4005101B100B100B100B100B100B100B1008D
:10470400B100B100B100B100B100B100B100B1001D
:10471400B100B100B100B100B100B100B100B1000D
:10472400B100B100B100B100B100B100B100B100FD
:104734001E013A011E01B100B100B100B100B10087
:10474400B100B100B100B100B100B100B100B100DD
:10475400B100B100B100B401B100B100B100B100C9
:10476400B100B100B100B100B100B4015801B4010D
:104774001E013A011E01002404EB840401EB4404ED
:1047840019781D46A1F130000928A4F1300403F181
:104794000103F1D92E297FF46CAF69781846A1F191
:1047A4003007092F42F4806240F225812A2900F063
:1047B40032811D46002701335CE73446DDF8209042
:1047C400B14501D809F1FF364B4632465146002027
:1047D400D84720461BB0BDE8F08FA1F16903DBB2D6
:1047E4000F2B36D8012049F2410C984010EA0C00F6
:1047F40040F0F4800A2B35D0072B2AD158F8041B3B
:10480400002940F0108122F0100412F4806144F079
:10481400210400F00A8112AA082305931023CDE98C
:1048240000203246069404970393002302935146D2
:104834005846089BFFF7D2F80646F3E658F8044BAF
:104844006978002C1D46BCBF42F002026442013369
:104854000CE70846E1E600BF514500205CEC01206E
:104864009938002058F8049B002F99F8000014BFD1
:104874003B464FF0FF33002800F08183494603EBA9
:10488400090C04E011F8013F002B00F043818C4532
:10489400F8D1ACEB0901530540F12081B94228BF9E
:1048A400394612F0020300F083820223CDE909485D
:1048B40032468846089C37440B9307E0234651460A
:1048C400D84719F8010F013610B13246B742F5D175
:1048D4000B9B4146099CDDF82880002B3FF4A2AED7
:1048E40037468C427FF69EAE2644089C761A3A469A
:1048F4002346514620200137D847B742F7D191E6E5
:1049040069786C297FF4E4AEA97842F44072EB1C18
:10491400E1E6697842F400720133DCE669786829DB
:1049240000F0FB8042F080020133D4E6672900F0F6
:10493400C980472900F0CD80452900F0CC80CDE91D
:10494400034208F10708029728F007083246F8E8FE
:1049540002675146CDE900675846089BFFF784FB80
:1049640006465FE6462908BF42F02002CDE903422D
:1049740008F10708029728F007083246F8E80267AA
:104984005146CDE900675846089BFFF721F90646D2
:1049940048E6324651462520089BD847013641E671
:1049A40008F104039207099306F1010740F1C3805B
:1049B4003246514698F80000089BD847012C40F233
:1049C400B4812644089C3A462346514620200137A8
:1049D400D847B742F7D1DDF8248023E66F2974D095
:1049E40040F24182782900F086814FF00A0922F0D2
:1049F40010024B4638E0002707EB870701EB47011D
:104A0400A1F1300710F8011FA1F13003092BF3D9EC
:104A14000546431C2EE658F8047BA97802356B1C26
:104A240027EAE77726E642F0210412AA944602E038
:104A340020283FF4F1AE01F00F03092B94BF30336B
:104A440037330F298CF8003000F101000CF1010C10
:104A54004FEA1111ECD8DFE6582966D0622940F0FC
:104A640089804FF002094B4612F4806C00F0D48028
:104A740022F00D02099212F4007140F07B8112F4CD
:104A8400807008F1040940F03882510640F13A81FF
:104A940098F80010002940F04A81099A22F0100287
:104AA4000992BCF1000F00F04281084612AA09994C
:104AB400CDE90337CDE9054101900023009202932B
:104AC4003246A1E042F4006239E74FF008094B4650
:104AD400CAE742F4006242F0200230E712F0020317
:104AE40000F08C810223CDE909481F468846089CC2
:104AF400324623465146D84719F8010F013600289B
:104B0400F6D13B464146099CDDF82880002B3FF452
:104B140089ADE5E6A1EB0901BDE6A97842F0C00242
:104B2400EB1CD8E5044606464AE64FF0100942F06D
:104B340020024B4698E7012C40F2F180374606F1FB
:104B4400FF39CDF82880DDF82080A1443A46434659
:104B5400514620200137D8474F45F7D1DDF828804A
:104B64003A4698F800005146089BD8472644DDF899
:104B7400248057E512F4806300F0C1804FF4806311
:104B840022F0110010F4007E4AD110F4807C08F168
:104B9400040940F03781410600F1A980020640F182
:104BA400E081B8F9002082EAE271A1EBE2711FFA18
:104BB40081FED10F0991002A00F05F81734612AA89
:104BC4009646DFF8AC830A9403E0BCF1200F234639
:104BD4000FD0A8FB0314E40804EB8401A3EB410108
:104BE4000EF1010E3031092B0CF1010C0EF8011CF1
:104BF400EBD80A9C099B0092CDE901C30A233246F3
:104C0400CDE905400497039351465846089BFEF7A7
:104C1400E5FEC846064605E522F00C0209922AE79D
:104C240008F1070828F00708D8F8042058F808CB3A
:104C3400D10F5CEA020E6CD0002A634602DA5B42B2
:104C440062EB42029146099312AA94464FF0000E79
:104C5400CDE90A18CDE90C470E960F9203E0BEF198
:104C6400200F3B4630D04FF0CC3213EB0901C04F3C
:104C740041F10001A7FB014626F0030404EB96046E
:104C8400091B5C1A02FB04F63A4669F1000802FBB0
:104C940008660522A4FB077407F001082644A8FB54
:104CA400024864180A2B0CF1010C4FEA570704F16F
:104CB400300479F100090EF1010E0CF8014C47EAB9
:104CC400C6774FEA5609CAD27346DDE90A18DDE908
:104CD4000C470E9E0F9ACDF824E0CDE901310A234A
:104CE4000092CDE905403246049703939FE598F876
:104CF400002096465DE74FF010094B46B4E622F0DB
:104D040010003FE711064CBFB8F80010D8F80010A7
:104D1400C0E6002B40F041819946099394E732465E
:104D2400514698F80000089BD8473E4653E6099A36
:104D34000A9412F0200F14BF4FF041084FF061089D
:104D440012AA9446A8F10A0802E0202871460FD05E
:104D5400B1FBF3FE03FB1E14092C94BF303444440E
:104D640099428CF8004000F101000CF1010CECD2E6
:104D74000A9C9CE608F1070828F00708D8F80420E4
:104D840058F8081B0A920A438E467BD1099A22F0EE
:104D940010020992BCF1000F74D0002012AA0999E4
:104DA400CDE90020CDE905413246CDE903373CE5A4
:104DB4008C4298BF01317FF679AD4FF48063CDE921
:104DC40009949946A2190B97089F541A32463B46F8
:104DD400514620200136D847A642F7D1DDE90A47DB
:104DE4004B46DDF8249099F8000000283FF41AACF3
:104DF400611C002B3FF477AE002357E58C42DED8CC
:104E0400013170E6D8F80020D10F002A00F0B280FA
:104E140082EAE273A3EBE27312AA9446CDE9091481
:104E2400DFF84C8103E0BEF1200F23460FD0A8FB2E
:104E34000314E40804EB8401A3EB41010CF1010C1D
:104E44003031092B0EF1010E0CF8011CEBD8DDE911
:104E540009140A230092CDE905403246CDE901E167
:104E640004970393D0E6692922F0100040F0908063
:104E740012F480633FF486AE80E6002B3FF49FAECD
:104E840012AAB7E6099ACDE90B8412F0200F14BFD9
:104E940041216121CDE90D76CDE90F3BCDF844A048
:104EA4000027F0460A9C12AE0DF1480BA1F10A0A44
:104EB40003E0202F80460C4613D021464A460023A7
:104EC40040460CF07BFFD2B2092A94BF30325244E0
:104ED400C84574F10004327007F1010706F10106B8
:104EE400E7D23846DDE90B845A460E9E0D9F0F9B90
:104EF400DDF844A0DDF840B051E7D8F800E0BEF199
:104F0400000F0DD122F010020992BCF1000F07D05E
:104F140012AA0998CDE90337CDE905400191CCE502
:104F2400099A12F0200F14BF4120612012AA94465E
:104F34000A92A0F10A0202E02029C6460FD0BEFB65
:104F4400F3F803FB18E0092894BF303080189E451D
:104F54008CF8000001F101010CF1010CECD20A9A69
:104F6400D7E7D8F8002082EAE27EAEEBE27E20E6C4
:104F7400CDCCCCCC002B3FF44FAF12AA69E712F48E
:104F840080610ED012F0020114D001463746A8E425
:104F94004FF00A0902464B4666E5002312AA09931C
:104FA4009BE612F002037FF49BAC002C7FF407AF66
:104FB400FFF738BB002C7FF400AFFFF733BB00BF13
:104FC4000EB400B584B00DF1140C5CF8043B01463A
:104FD4004FF0FF32CDF800C00448CDF80CC0FFF705
:104FE40003FB04B05DF804EB03B070479138002074
:104FF4000CB400B585B00DF1180C5CF8043B0A46FE
:10500400CDF800C001460548CDF80CC0FFF7ECFA16
:1050140005B05DF804EB02B0704700BF9138002082
:1050240030B583B0009313460A4601460248FFF7A1
:10503400DBFA03B030BD00BF913800208C4610B5B8
:1050440084B000930290134602A94FF0FF32034844
:10505400CDF80CC0FFF7C8FA04B010BD293B0020FE
:105064000FB410B50E4B84B006A91C6851F8043B6C
:1050740003915CB100914FF0FF3202A90948A047A7
:10508400012004B0BDE8104004B07047184600F099
:1050940029FA204604B0BDE8104004B0704700BFB0
:1050A4005CEC0120213B002010B5094A84B014684F
:1050B4004CB1034600914FF0FF3203A90548A047C5
:1050C400012004B010BD00F00DFA204604B010BD5C
:1050D4005CEC0120213B002000BEFDE7074A0346AB
:1050E400106838B1064903448B428CBF4FF0FF303F
:1050F40013607047034908461160F3E744E8012050
:105104000000082000FE022008B5FFF7E5FF00BFFD
:1051140000B50C468646194683B06AB11046DFF8DE
:1051240024C00190234672460548CDF800C0FFF71D
:1051340097FF0120FFF7D0FFDFF80CC06046F0E7CF
:10514400A8910120989101203896012038B5074C88
:10515400074D0848FEF7DEF8FDF7E6FFAC4204D23F
:1051640054F8043B9847AC42FAD338BDC0CC012074
:10517400D0CC0120F0F807200368084611461847F0
:1051840070B505460846697D82B000294FD0002AD3
:1051940025DD037814460A2B064622D0012C4FF055
:1051A400000E0DD03246012312F801CF1946BCF18E
:1051B4000A0F03F1010320D09C42F5D1744505DDAB
:1051C4002B68A4EB0E0106EB0E009847311911F879
:1051D400013CA3F10D03B3FA83F35B092B7502B011
:1051E40070BD2B7D002BD9D102212B681348984721
:1051F400012CEBD04FF0010ED4E712F8010C0D286E
:10520400DAD08E4506EB0E00A1EB0E0105DACDE9EE
:1052140000322B689847DDE90032CDE900320221E3
:105224002B6806489847009B019A9E46C4E711469E
:105234002B6802B0BDE87040184700BF10A00120E1
:1052440070B50B680C46802B054682B005D05A1CFD
:10525400234422601D7102B070BD0E4B186878B9EA
:1052640000230122234422601D7102B070BD226814
:10527400211D0190FFF784FF019800690028EFD0F9
:105284000368002BF9D0044B1B68002BEFD083423A
:10529400F3D1ECE72CE8012040E801202DE9F047A8
:1052A40082B090461C460D460746FDF7D9FB4FF0E9
:1052B400FF3C6FF000462E4A821841F100039445EA
:1052C40076EB03013CBF624633462A4812F03EFBAC
:1052D4006B1C824640D00CB3274E284B1C68B4B1DB
:1052E400B8F1000F1CD1DFF89C8001E0246974B18F
:1052F4002368002BFAD0D8F800300BB19C42F5D1CA
:1053040020462A463946B0472469002CF0D1BAF128
:10531400000F26D1284602B0BDE8F087184EDCE71E
:105324004FF00A09DFF85C8002E02469002CEED01B
:105334002368002BF9D0D8F800300BB1A342F4D184
:105344002A4639462046B047012220460DF107017E
:105354008DF80790B047E8E738460EF0BFF80546E9
:10536400B9E7044812F042FB284602B0BDE8F087D2
:1053740040420F0068CC0120E95000202CE80120B5
:10538400E150002040E80120084A136823B90AE0EC
:1053940003F110021B6933B18342F9D129B91869A9
:1053A40010601961704701B1106070472CE801204A
:1053B400074B10B51C682CB1636823B19847246966
:1053C400002CF9D110BD2469002CF5D110BD00BF0B
:1053D4002CE801202DE9F04182B00646FDF740FBA0
:1053E4004FF0FF326FF00043361841F10007B2422C
:1053F40073EB07013CBF16461F46DFF86080154D6E
:10540400D8F8004014B912E0246984B12B680BB1B8
:105414009C42F9D1A368002BF6D0012101A898473A
:105424000028F1DD9DF8040002B0BDE8F0810A4BCC
:105434005A6A974209D89B6AB34204D36FF00100B9
:1054440002B0BDE8F0819742F8D101200021FDF7B8
:1054540011FBD5E740E8012000000B402CE80120B7
:10546400F0B583B006468DF80700FDF7F9FA4FF062
:10547400FF356FF00044174A821841F1000395424A
:1054840074EB03013CBF23462A46134812F05EFA2C
:10549400124B07461C689CB1114D01E024697CB194
:1054A4002368002BFAD02B680BB19C42F6D120461E
:1054B40001220DF10701FFF763FE2469002CEFD1EF
:1054C40017B9304603B0F0BD034812F08FFA3046E6
:1054D40003B0F0BD40420F0068CC01202CE801204D
:1054E40040E8012038B504460DF0F8FF01230546D5
:1054F4001A4620462946FFF7D1FE084B1C682CB1FA
:1055040063682BB198472469002CF9D1284638BD2B
:105514002469002CF4D1284638BD00BF2CE80120B2
:105524002DE9F041A2B00E460546FDF799FA4FF079
:10553400FF3C6FF00044254A821841F10003944572
:1055440074EB03013CBF23466246214812F0FEF986
:105554000024334607462A461E4801A90194FFF752
:105564006DFD1D4E019B80463468BBB1002C2AD0D2
:105574001A4D01E0246974B12368002BFAD02B681A
:105584000BB1A342F6D12046019A02A9FFF7F8FD18
:105594002469002CF0D12346346801932CB163684C
:1055A40043B198472469002CF9D12FB9404622B061
:1055B400BDE8F0812469F1E7054812F017FA404686
:1055C40022B0BDE8F0810194EFE700BF40420F0034
:1055D40068CC0120A95100202CE8012040E80120DA
:1055E4000FB400B583B004A951F8040B0191FFF77F
:1055F40097FF03B05DF804EB04B07047704700BF39
:105604000022014B1A707047F8FD02204B79FF2BE2
:105614000BD1887948B9CB79012B07D1082A05D950
:10562400034B8A7809201A7070470020704700BF26
:10563400F8FD022001207047012901D001207047A4
:1056440008B5104B91881B78994201D0002008BD01
:105654005378012B08D0022BF8D10021642208468C
:10566400FDF786FC012008BD5188CB0548BF480AD8
:10567400C1F3402258BF4FF0FF3001F07F01FDF726
:105684000FFD00BFF8FD022000487047DCA0012098
:10569400012907D15378012B02D19388072B03D01A
:1056A40000207047012070471146A623014A01F0EB
:1056B40071BA00BF34A001200346012201481A70C8
:1056C400704700BF14A0012008B50B68B3F5966FAE
:1056D40000D008BD00224FF0FF301146FDF7E0FC7A
:1056E400024A034B10601960704700BFACE7012009
:1056F400B0E70120184B70B51A68002A28D0EFF3E0
:10570400108172B6D2E8CF4F0120002CFAD1C2E842
:10571400440F002CF6D1BFF35F8F00220F4C1868A2
:1057240059602270C0E88F2F81F31088002400256F
:105734000B4E3078FCF7A0FA20B90024002520464F
:10574400294670BD3078FCF7B3FA2046294670BD6F
:105754004FF47A740025EBE718FC0220FAFD0220CE
:10576400F9FD0220014B1878FCF7A2BAF9FD0220DA
:1057740038B5044600200D4601F038FBA8B30020DC
:1057840001F04AFB88B3FDF76BF94FF0FF3E6FF071
:10579400004C174A821841F1000396457CEB030143
:1057A4003CBF72466346134812F0D0F8E8B10020BB
:1057B40001F01CFB58B901464FF0FF3000F016FD14
:1057C4006FF002040B4812F011F9204638BD002096
:1057D40001F022FB0028EED021462A46002001F0E9
:1057E40027FB04460028EDD1EAE76FF00204ECE75A
:1057F40040420F001CFD022008B5FDF731F94FF0BF
:10580400FF3E6FF0004C0F4A821841F100039645A9
:105814007CEB03013CBF724663460B4812F096F8DA
:1058240070B14FF0FF30002100F0E0FC002001F0E7
:1058340045FB0028F5D1BDE80840034812F0D6B86E
:1058440008BD00BF40420F001CFD02202DE9F041BD
:1058540007460E46FDF704F94FF0FF356FF000449C
:10586400324A821841F10003954274EB03013CBFB4
:105874002A4623462E4812F069F808B9BDE8F0819B
:10588400002001F0B3FA002845D0002E3EDD0025AB
:10589400DFF8A48012E02246002001F059FB002129
:1058A40005444FF0FF3000F0A1FC002001F006FB9E
:1058B400FDF7D6F8C8E90001AE4227DD002001F06B
:1058C40067FB741B8442A8BF04467919002CE2D1FB
:1058D40021464FF0FF3000F089FC204601F0EEFA3B
:1058E400204601F083FA88B1204601F051FB0028DC
:1058F400E2D1FDF7B5F80F4AD8F800309B18D8F874
:10590400042042F1000283428A41D5D20848BDE80E
:10591400F04112F06BB80020BDE8F0410021064BC5
:10592400C3E90001024812F061B800BF40420F0011
:105934001CFD022020A1070008D1012010B5002180
:1059440084B0324811F0A4FF28BB314B1A6802B36B
:10595400EFF3108172B6D2E8CFEF5FF0010CBEF125
:10596400000FF8D1C2E84ECFBEF1000FF3D1BFF360
:105974005F8FDFF8A8C0D3F800E09CF800205960DE
:10598400D3B201228CF80020CEE88F0F81F3108867
:10599400CBB104B010BD00214FF0FF3000F026FC65
:1059A400002001F039FA0446184812F01FF8002CC0
:1059B400EFD0184B1B68002BEBD0174A106804B0CB
:1059C400BDE810401847FCF7BBFD0446FDF748F856
:1059D4004FF0FF3E6FF0004C10F57A7241F1000376
:1059E40096457CEB030138BF63464FF000014FF04E
:1059F400010C38BF7246DFF828E02046CDE9011CCF
:105A0400CDF800E0FCF7A0FD04B010BD1CFD0220A1
:105A140018FC0220ACE70120B0E70120FAFD0220C7
:105A24005D5600204FF0504330B585B01C68FCF73C
:105A340087FDFCF7A3FEA04202D0002005B030BDD4
:105A44002B4B1B7801F08AFD2A480368002B4BD0AE
:105A54000120FCF7F9FA0346274C2849C0B2237009
:105A6400FCF742F920780121FCF7F0F80E20FCF74E
:105A74002BF960BB224B6FF00044C3E90000FCF734
:105A84005FFD0546FCF7ECFF4FF0FF3C10F57A7222
:105A940041F10003944574EB030138BF23464FF0F2
:105AA40000014FF0010438BF6246DFF860C02846A9
:105AB400CDE90114CDF800C0FCF746FD0028BCDB9D
:105AC40001211048FFF760FC012005B030BD012022
